{
	"contract/todo.sol": {
		"ToDo": {
			"abi": [
				{
					"inputs": [],
					"stateMutability": "nonpayable",
					"type": "constructor"
				},
				{
					"inputs": [
						{
							"internalType": "string",
							"name": "_content",
							"type": "string"
						}
					],
					"name": "add",
					"outputs": [],
					"stateMutability": "nonpayable",
					"type": "function"
				},
				{
					"inputs": [
						{
							"internalType": "uint256",
							"name": "_id",
							"type": "uint256"
						}
					],
					"name": "get",
					"outputs": [
						{
							"components": [
								{
									"internalType": "string",
									"name": "content",
									"type": "string"
								},
								{
									"internalType": "bool",
									"name": "status",
									"type": "bool"
								}
							],
							"internalType": "struct ToDo.Task",
							"name": "",
							"type": "tuple"
						}
					],
					"stateMutability": "view",
					"type": "function"
				},
				{
					"inputs": [],
					"name": "list",
					"outputs": [
						{
							"components": [
								{
									"internalType": "string",
									"name": "content",
									"type": "string"
								},
								{
									"internalType": "bool",
									"name": "status",
									"type": "bool"
								}
							],
							"internalType": "struct ToDo.Task[]",
							"name": "",
							"type": "tuple[]"
						}
					],
					"stateMutability": "view",
					"type": "function"
				},
				{
					"inputs": [],
					"name": "owner",
					"outputs": [
						{
							"internalType": "address",
							"name": "",
							"type": "address"
						}
					],
					"stateMutability": "view",
					"type": "function"
				},
				{
					"inputs": [
						{
							"internalType": "uint256",
							"name": "_id",
							"type": "uint256"
						}
					],
					"name": "remove",
					"outputs": [],
					"stateMutability": "nonpayable",
					"type": "function"
				},
				{
					"inputs": [
						{
							"internalType": "uint256",
							"name": "_id",
							"type": "uint256"
						}
					],
					"name": "toggle",
					"outputs": [],
					"stateMutability": "nonpayable",
					"type": "function"
				},
				{
					"inputs": [
						{
							"internalType": "uint256",
							"name": "_id",
							"type": "uint256"
						},
						{
							"internalType": "string",
							"name": "_content",
							"type": "string"
						}
					],
					"name": "update",
					"outputs": [],
					"stateMutability": "nonpayable",
					"type": "function"
				}
			],
			"devdoc": {
				"kind": "dev",
				"methods": {},
				"version": 1
			},
			"evm": {
				"assembly": "    /* \"contract/todo.sol\":70:1090  contract ToDo {... */\n  mstore(0x40, 0x80)\n    /* \"contract/todo.sol\":209:258  constructor() {... */\n  callvalue\n  dup1\n  iszero\n  tag_1\n  jumpi\n  0x00\n  dup1\n  revert\ntag_1:\n  pop\n    /* \"contract/todo.sol\":241:251  msg.sender */\n  caller\n    /* \"contract/todo.sol\":233:238  owner */\n  0x00\n  dup1\n    /* \"contract/todo.sol\":233:251  owner = msg.sender */\n  0x0100\n  exp\n  dup2\n  sload\n  dup2\n  0xffffffffffffffffffffffffffffffffffffffff\n  mul\n  not\n  and\n  swap1\n  dup4\n  0xffffffffffffffffffffffffffffffffffffffff\n  and\n  mul\n  or\n  swap1\n  sstore\n  pop\n    /* \"contract/todo.sol\":70:1090  contract ToDo {... */\n  dataSize(sub_0)\n  dup1\n  dataOffset(sub_0)\n  0x00\n  codecopy\n  0x00\n  return\nstop\n\nsub_0: assembly {\n        /* \"contract/todo.sol\":70:1090  contract ToDo {... */\n      mstore(0x40, 0x80)\n      callvalue\n      dup1\n      iszero\n      tag_1\n      jumpi\n      0x00\n      dup1\n      revert\n    tag_1:\n      pop\n      jumpi(tag_2, lt(calldatasize, 0x04))\n      shr(0xe0, calldataload(0x00))\n      dup1\n      0x8da5cb5b\n      gt\n      tag_10\n      jumpi\n      dup1\n      0x8da5cb5b\n      eq\n      tag_6\n      jumpi\n      dup1\n      0x9507d39a\n      eq\n      tag_7\n      jumpi\n      dup1\n      0xb0c8f9dc\n      eq\n      tag_8\n      jumpi\n      dup1\n      0xf745630f\n      eq\n      tag_9\n      jumpi\n      jump(tag_2)\n    tag_10:\n      dup1\n      0x0f560cd7\n      eq\n      tag_3\n      jumpi\n      dup1\n      0x4cc82215\n      eq\n      tag_4\n      jumpi\n      dup1\n      0x751ef753\n      eq\n      tag_5\n      jumpi\n    tag_2:\n      0x00\n      dup1\n      revert\n        /* \"contract/todo.sol\":554:635  function list() public view returns (Task[] memory) {... */\n    tag_3:\n      tag_11\n      tag_12\n      jump\t// in\n    tag_11:\n      mload(0x40)\n      tag_13\n      swap2\n      swap1\n      tag_14\n      jump\t// in\n    tag_13:\n      mload(0x40)\n      dup1\n      swap2\n      sub\n      swap1\n      return\n        /* \"contract/todo.sol\":860:1087  function remove(uint _id) public isOwner {... */\n    tag_4:\n      tag_15\n      0x04\n      dup1\n      calldatasize\n      sub\n      dup2\n      add\n      swap1\n      tag_16\n      swap2\n      swap1\n      tag_17\n      jump\t// in\n    tag_16:\n      tag_18\n      jump\t// in\n    tag_15:\n      stop\n        /* \"contract/todo.sol\":758:854  function toggle(uint _id) public isOwner {... */\n    tag_5:\n      tag_19\n      0x04\n      dup1\n      calldatasize\n      sub\n      dup2\n      add\n      swap1\n      tag_20\n      swap2\n      swap1\n      tag_17\n      jump\t// in\n    tag_20:\n      tag_21\n      jump\t// in\n    tag_19:\n      stop\n        /* \"contract/todo.sol\":90:110  address public owner */\n    tag_6:\n      tag_22\n      tag_23\n      jump\t// in\n    tag_22:\n      mload(0x40)\n      tag_24\n      swap2\n      swap1\n      tag_25\n      jump\t// in\n    tag_24:\n      mload(0x40)\n      dup1\n      swap2\n      sub\n      swap1\n      return\n        /* \"contract/todo.sol\":453:544  function get(uint _id) public view returns (Task memory) {... */\n    tag_7:\n      tag_26\n      0x04\n      dup1\n      calldatasize\n      sub\n      dup2\n      add\n      swap1\n      tag_27\n      swap2\n      swap1\n      tag_17\n      jump\t// in\n    tag_27:\n      tag_28\n      jump\t// in\n    tag_26:\n      mload(0x40)\n      tag_29\n      swap2\n      swap1\n      tag_30\n      jump\t// in\n    tag_29:\n      mload(0x40)\n      dup1\n      swap2\n      sub\n      swap1\n      return\n        /* \"contract/todo.sol\":345:447  function add(string memory _content) public isOwner {... */\n    tag_8:\n      tag_31\n      0x04\n      dup1\n      calldatasize\n      sub\n      dup2\n      add\n      swap1\n      tag_32\n      swap2\n      swap1\n      tag_33\n      jump\t// in\n    tag_32:\n      tag_34\n      jump\t// in\n    tag_31:\n      stop\n        /* \"contract/todo.sol\":641:752  function update(uint _id, string memory _content) public isOwner {... */\n    tag_9:\n      tag_35\n      0x04\n      dup1\n      calldatasize\n      sub\n      dup2\n      add\n      swap1\n      tag_36\n      swap2\n      swap1\n      tag_37\n      jump\t// in\n    tag_36:\n      tag_38\n      jump\t// in\n    tag_35:\n      stop\n        /* \"contract/todo.sol\":554:635  function list() public view returns (Task[] memory) {... */\n    tag_12:\n        /* \"contract/todo.sol\":591:604  Task[] memory */\n      0x60\n        /* \"contract/todo.sol\":623:628  tasks */\n      0x01\n        /* \"contract/todo.sol\":616:628  return tasks */\n      dup1\n      sload\n      dup1\n      0x20\n      mul\n      0x20\n      add\n      mload(0x40)\n      swap1\n      dup2\n      add\n      0x40\n      mstore\n      dup1\n      swap3\n      swap2\n      swap1\n      dup2\n      dup2\n      mstore\n      0x20\n      add\n      0x00\n      swap1\n    tag_40:\n      dup3\n      dup3\n      lt\n      iszero\n      tag_41\n      jumpi\n      dup4\n      dup3\n      swap1\n      0x00\n      mstore\n      keccak256(0x00, 0x20)\n      swap1\n      0x02\n      mul\n      add\n      mload(0x40)\n      dup1\n      0x40\n      add\n      0x40\n      mstore\n      swap1\n      dup2\n      0x00\n      dup3\n      add\n      dup1\n      sload\n      tag_43\n      swap1\n      tag_44\n      jump\t// in\n    tag_43:\n      dup1\n      0x1f\n      add\n      0x20\n      dup1\n      swap2\n      div\n      mul\n      0x20\n      add\n      mload(0x40)\n      swap1\n      dup2\n      add\n      0x40\n      mstore\n      dup1\n      swap3\n      swap2\n      swap1\n      dup2\n      dup2\n      mstore\n      0x20\n      add\n      dup3\n      dup1\n      sload\n      tag_45\n      swap1\n      tag_44\n      jump\t// in\n    tag_45:\n      dup1\n      iszero\n      tag_46\n      jumpi\n      dup1\n      0x1f\n      lt\n      tag_47\n      jumpi\n      0x0100\n      dup1\n      dup4\n      sload\n      div\n      mul\n      dup4\n      mstore\n      swap2\n      0x20\n      add\n      swap2\n      jump(tag_46)\n    tag_47:\n      dup3\n      add\n      swap2\n      swap1\n      0x00\n      mstore\n      keccak256(0x00, 0x20)\n      swap1\n    tag_48:\n      dup2\n      sload\n      dup2\n      mstore\n      swap1\n      0x01\n      add\n      swap1\n      0x20\n      add\n      dup1\n      dup4\n      gt\n      tag_48\n      jumpi\n      dup3\n      swap1\n      sub\n      0x1f\n      and\n      dup3\n      add\n      swap2\n    tag_46:\n      pop\n      pop\n      pop\n      pop\n      pop\n      dup2\n      mstore\n      0x20\n      add\n      0x01\n      dup3\n      add\n      0x00\n      swap1\n      sload\n      swap1\n      0x0100\n      exp\n      swap1\n      div\n      0xff\n      and\n      iszero\n      iszero\n      iszero\n      iszero\n      dup2\n      mstore\n      pop\n      pop\n      dup2\n      mstore\n      0x20\n      add\n      swap1\n      0x01\n      add\n      swap1\n      jump(tag_40)\n    tag_41:\n      pop\n      pop\n      pop\n      pop\n      swap1\n      pop\n        /* \"contract/todo.sol\":554:635  function list() public view returns (Task[] memory) {... */\n      swap1\n      jump\t// out\n        /* \"contract/todo.sol\":860:1087  function remove(uint _id) public isOwner {... */\n    tag_18:\n        /* \"contract/todo.sol\":310:320  msg.sender */\n      caller\n        /* \"contract/todo.sol\":301:320  owner == msg.sender */\n      0xffffffffffffffffffffffffffffffffffffffff\n      and\n        /* \"contract/todo.sol\":301:306  owner */\n      0x00\n      dup1\n      sload\n      swap1\n      0x0100\n      exp\n      swap1\n      div\n      0xffffffffffffffffffffffffffffffffffffffff\n      and\n        /* \"contract/todo.sol\":301:320  owner == msg.sender */\n      0xffffffffffffffffffffffffffffffffffffffff\n      and\n      eq\n        /* \"contract/todo.sol\":293:321  require(owner == msg.sender) */\n      tag_50\n      jumpi\n      0x00\n      dup1\n      revert\n    tag_50:\n        /* \"contract/todo.sol\":934:937  _id */\n      dup1\n        /* \"contract/todo.sol\":919:924  tasks */\n      0x01\n        /* \"contract/todo.sol\":919:931  tasks.length */\n      dup1\n      sload\n      swap1\n      pop\n        /* \"contract/todo.sol\":919:937  tasks.length > _id */\n      gt\n        /* \"contract/todo.sol\":911:955  require(tasks.length > _id, \"Out of bounds\") */\n      tag_52\n      jumpi\n      mload(0x40)\n      0x08c379a000000000000000000000000000000000000000000000000000000000\n      dup2\n      mstore\n      0x04\n      add\n      tag_53\n      swap1\n      tag_54\n      jump\t// in\n    tag_53:\n      mload(0x40)\n      dup1\n      swap2\n      sub\n      swap1\n      revert\n    tag_52:\n        /* \"contract/todo.sol\":971:977  uint i */\n      0x00\n        /* \"contract/todo.sol\":980:983  _id */\n      dup2\n        /* \"contract/todo.sol\":971:983  uint i = _id */\n      swap1\n      pop\n        /* \"contract/todo.sol\":966:1059  for (uint i = _id; i < tasks.length -1; i++) {... */\n    tag_55:\n        /* \"contract/todo.sol\":1003:1004  1 */\n      0x01\n        /* \"contract/todo.sol\":989:994  tasks */\n      dup1\n        /* \"contract/todo.sol\":989:1001  tasks.length */\n      dup1\n      sload\n      swap1\n      pop\n        /* \"contract/todo.sol\":989:1004  tasks.length -1 */\n      tag_58\n      swap2\n      swap1\n      tag_59\n      jump\t// in\n    tag_58:\n        /* \"contract/todo.sol\":985:986  i */\n      dup2\n        /* \"contract/todo.sol\":985:1004  i < tasks.length -1 */\n      lt\n        /* \"contract/todo.sol\":966:1059  for (uint i = _id; i < tasks.length -1; i++) {... */\n      iszero\n      tag_56\n      jumpi\n        /* \"contract/todo.sol\":1036:1041  tasks */\n      0x01\n        /* \"contract/todo.sol\":1046:1047  1 */\n      dup1\n        /* \"contract/todo.sol\":1042:1043  i */\n      dup3\n        /* \"contract/todo.sol\":1042:1047  i + 1 */\n      tag_60\n      swap2\n      swap1\n      tag_61\n      jump\t// in\n    tag_60:\n        /* \"contract/todo.sol\":1036:1048  tasks[i + 1] */\n      dup2\n      sload\n      dup2\n      lt\n      tag_62\n      jumpi\n      tag_63\n      tag_64\n      jump\t// in\n    tag_63:\n    tag_62:\n      swap1\n      0x00\n      mstore\n      keccak256(0x00, 0x20)\n      swap1\n      0x02\n      mul\n      add\n        /* \"contract/todo.sol\":1025:1030  tasks */\n      0x01\n        /* \"contract/todo.sol\":1031:1032  i */\n      dup3\n        /* \"contract/todo.sol\":1025:1033  tasks[i] */\n      dup2\n      sload\n      dup2\n      lt\n      tag_66\n      jumpi\n      tag_67\n      tag_64\n      jump\t// in\n    tag_67:\n    tag_66:\n      swap1\n      0x00\n      mstore\n      keccak256(0x00, 0x20)\n      swap1\n      0x02\n      mul\n      add\n        /* \"contract/todo.sol\":1025:1048  tasks[i] = tasks[i + 1] */\n      0x00\n      dup3\n      add\n      dup2\n      0x00\n      add\n      swap1\n      dup2\n      tag_69\n      swap2\n      swap1\n      tag_70\n      jump\t// in\n    tag_69:\n      pop\n      0x01\n      dup3\n      add\n      0x00\n      swap1\n      sload\n      swap1\n      0x0100\n      exp\n      swap1\n      div\n      0xff\n      and\n      dup2\n      0x01\n      add\n      exp(0x0100, 0x00)\n      dup2\n      sload\n      dup2\n      0xff\n      mul\n      not\n      and\n      swap1\n      dup4\n      iszero\n      iszero\n      mul\n      or\n      swap1\n      sstore\n      pop\n      swap1\n      pop\n      pop\n        /* \"contract/todo.sol\":1006:1009  i++ */\n      dup1\n      dup1\n      tag_71\n      swap1\n      tag_72\n      jump\t// in\n    tag_71:\n      swap2\n      pop\n      pop\n        /* \"contract/todo.sol\":966:1059  for (uint i = _id; i < tasks.length -1; i++) {... */\n      jump(tag_55)\n    tag_56:\n      pop\n        /* \"contract/todo.sol\":1069:1074  tasks */\n      0x01\n        /* \"contract/todo.sol\":1069:1080  tasks.pop() */\n      dup1\n      sload\n      dup1\n      tag_73\n      jumpi\n      tag_74\n      tag_75\n      jump\t// in\n    tag_74:\n    tag_73:\n      0x01\n      swap1\n      sub\n      dup2\n      dup2\n      swap1\n      0x00\n      mstore\n      keccak256(0x00, 0x20)\n      swap1\n      0x02\n      mul\n      add\n      0x00\n      dup1\n      dup3\n      add\n      0x00\n      tag_77\n      swap2\n      swap1\n      tag_78\n      jump\t// in\n    tag_77:\n      0x01\n      dup3\n      add\n      exp(0x0100, 0x00)\n      dup2\n      sload\n      swap1\n      0xff\n      mul\n      not\n      and\n      swap1\n      sstore\n      pop\n      pop\n      swap1\n      sstore\n        /* \"contract/todo.sol\":860:1087  function remove(uint _id) public isOwner {... */\n      pop\n      jump\t// out\n        /* \"contract/todo.sol\":758:854  function toggle(uint _id) public isOwner {... */\n    tag_21:\n        /* \"contract/todo.sol\":310:320  msg.sender */\n      caller\n        /* \"contract/todo.sol\":301:320  owner == msg.sender */\n      0xffffffffffffffffffffffffffffffffffffffff\n      and\n        /* \"contract/todo.sol\":301:306  owner */\n      0x00\n      dup1\n      sload\n      swap1\n      0x0100\n      exp\n      swap1\n      div\n      0xffffffffffffffffffffffffffffffffffffffff\n      and\n        /* \"contract/todo.sol\":301:320  owner == msg.sender */\n      0xffffffffffffffffffffffffffffffffffffffff\n      and\n      eq\n        /* \"contract/todo.sol\":293:321  require(owner == msg.sender) */\n      tag_80\n      jumpi\n      0x00\n      dup1\n      revert\n    tag_80:\n        /* \"contract/todo.sol\":830:835  tasks */\n      0x01\n        /* \"contract/todo.sol\":836:839  _id */\n      dup2\n        /* \"contract/todo.sol\":830:840  tasks[_id] */\n      dup2\n      sload\n      dup2\n      lt\n      tag_82\n      jumpi\n      tag_83\n      tag_64\n      jump\t// in\n    tag_83:\n    tag_82:\n      swap1\n      0x00\n      mstore\n      keccak256(0x00, 0x20)\n      swap1\n      0x02\n      mul\n      add\n        /* \"contract/todo.sol\":830:847  tasks[_id].status */\n      0x01\n      add\n      0x00\n      swap1\n      sload\n      swap1\n      0x0100\n      exp\n      swap1\n      div\n      0xff\n      and\n        /* \"contract/todo.sol\":829:847  !tasks[_id].status */\n      iszero\n        /* \"contract/todo.sol\":809:814  tasks */\n      0x01\n        /* \"contract/todo.sol\":815:818  _id */\n      dup3\n        /* \"contract/todo.sol\":809:819  tasks[_id] */\n      dup2\n      sload\n      dup2\n      lt\n      tag_85\n      jumpi\n      tag_86\n      tag_64\n      jump\t// in\n    tag_86:\n    tag_85:\n      swap1\n      0x00\n      mstore\n      keccak256(0x00, 0x20)\n      swap1\n      0x02\n      mul\n      add\n        /* \"contract/todo.sol\":809:826  tasks[_id].status */\n      0x01\n      add\n      0x00\n        /* \"contract/todo.sol\":809:847  tasks[_id].status = !tasks[_id].status */\n      0x0100\n      exp\n      dup2\n      sload\n      dup2\n      0xff\n      mul\n      not\n      and\n      swap1\n      dup4\n      iszero\n      iszero\n      mul\n      or\n      swap1\n      sstore\n      pop\n        /* \"contract/todo.sol\":758:854  function toggle(uint _id) public isOwner {... */\n      pop\n      jump\t// out\n        /* \"contract/todo.sol\":90:110  address public owner */\n    tag_23:\n      0x00\n      dup1\n      sload\n      swap1\n      0x0100\n      exp\n      swap1\n      div\n      0xffffffffffffffffffffffffffffffffffffffff\n      and\n      dup2\n      jump\t// out\n        /* \"contract/todo.sol\":453:544  function get(uint _id) public view returns (Task memory) {... */\n    tag_28:\n        /* \"contract/todo.sol\":497:508  Task memory */\n      tag_88\n      tag_89\n      jump\t// in\n    tag_88:\n        /* \"contract/todo.sol\":527:532  tasks */\n      0x01\n        /* \"contract/todo.sol\":533:536  _id */\n      dup3\n        /* \"contract/todo.sol\":527:537  tasks[_id] */\n      dup2\n      sload\n      dup2\n      lt\n      tag_91\n      jumpi\n      tag_92\n      tag_64\n      jump\t// in\n    tag_92:\n    tag_91:\n      swap1\n      0x00\n      mstore\n      keccak256(0x00, 0x20)\n      swap1\n      0x02\n      mul\n      add\n        /* \"contract/todo.sol\":520:537  return tasks[_id] */\n      mload(0x40)\n      dup1\n      0x40\n      add\n      0x40\n      mstore\n      swap1\n      dup2\n      0x00\n      dup3\n      add\n      dup1\n      sload\n      tag_94\n      swap1\n      tag_44\n      jump\t// in\n    tag_94:\n      dup1\n      0x1f\n      add\n      0x20\n      dup1\n      swap2\n      div\n      mul\n      0x20\n      add\n      mload(0x40)\n      swap1\n      dup2\n      add\n      0x40\n      mstore\n      dup1\n      swap3\n      swap2\n      swap1\n      dup2\n      dup2\n      mstore\n      0x20\n      add\n      dup3\n      dup1\n      sload\n      tag_95\n      swap1\n      tag_44\n      jump\t// in\n    tag_95:\n      dup1\n      iszero\n      tag_96\n      jumpi\n      dup1\n      0x1f\n      lt\n      tag_97\n      jumpi\n      0x0100\n      dup1\n      dup4\n      sload\n      div\n      mul\n      dup4\n      mstore\n      swap2\n      0x20\n      add\n      swap2\n      jump(tag_96)\n    tag_97:\n      dup3\n      add\n      swap2\n      swap1\n      0x00\n      mstore\n      keccak256(0x00, 0x20)\n      swap1\n    tag_98:\n      dup2\n      sload\n      dup2\n      mstore\n      swap1\n      0x01\n      add\n      swap1\n      0x20\n      add\n      dup1\n      dup4\n      gt\n      tag_98\n      jumpi\n      dup3\n      swap1\n      sub\n      0x1f\n      and\n      dup3\n      add\n      swap2\n    tag_96:\n      pop\n      pop\n      pop\n      pop\n      pop\n      dup2\n      mstore\n      0x20\n      add\n      0x01\n      dup3\n      add\n      0x00\n      swap1\n      sload\n      swap1\n      0x0100\n      exp\n      swap1\n      div\n      0xff\n      and\n      iszero\n      iszero\n      iszero\n      iszero\n      dup2\n      mstore\n      pop\n      pop\n      swap1\n      pop\n        /* \"contract/todo.sol\":453:544  function get(uint _id) public view returns (Task memory) {... */\n      swap2\n      swap1\n      pop\n      jump\t// out\n        /* \"contract/todo.sol\":345:447  function add(string memory _content) public isOwner {... */\n    tag_34:\n        /* \"contract/todo.sol\":310:320  msg.sender */\n      caller\n        /* \"contract/todo.sol\":301:320  owner == msg.sender */\n      0xffffffffffffffffffffffffffffffffffffffff\n      and\n        /* \"contract/todo.sol\":301:306  owner */\n      0x00\n      dup1\n      sload\n      swap1\n      0x0100\n      exp\n      swap1\n      div\n      0xffffffffffffffffffffffffffffffffffffffff\n      and\n        /* \"contract/todo.sol\":301:320  owner == msg.sender */\n      0xffffffffffffffffffffffffffffffffffffffff\n      and\n      eq\n        /* \"contract/todo.sol\":293:321  require(owner == msg.sender) */\n      tag_100\n      jumpi\n      0x00\n      dup1\n      revert\n    tag_100:\n        /* \"contract/todo.sol\":407:412  tasks */\n      0x01\n        /* \"contract/todo.sol\":418:439  Task(_content, false) */\n      mload(0x40)\n      dup1\n      0x40\n      add\n      0x40\n      mstore\n      dup1\n        /* \"contract/todo.sol\":423:431  _content */\n      dup4\n        /* \"contract/todo.sol\":418:439  Task(_content, false) */\n      dup2\n      mstore\n      0x20\n      add\n        /* \"contract/todo.sol\":433:438  false */\n      0x00\n        /* \"contract/todo.sol\":418:439  Task(_content, false) */\n      iszero\n      iszero\n      dup2\n      mstore\n      pop\n        /* \"contract/todo.sol\":407:440  tasks.push(Task(_content, false)) */\n      swap1\n      dup1\n      0x01\n      dup2\n      sload\n      add\n      dup1\n      dup3\n      sstore\n      dup1\n      swap2\n      pop\n      pop\n      0x01\n      swap1\n      sub\n      swap1\n      0x00\n      mstore\n      keccak256(0x00, 0x20)\n      swap1\n      0x02\n      mul\n      add\n      0x00\n      swap1\n      swap2\n      swap1\n      swap2\n      swap1\n      swap2\n      pop\n      0x00\n      dup3\n      add\n      mload\n      dup2\n      0x00\n      add\n      swap1\n      dup2\n      tag_103\n      swap2\n      swap1\n      tag_104\n      jump\t// in\n    tag_103:\n      pop\n      0x20\n      dup3\n      add\n      mload\n      dup2\n      0x01\n      add\n      exp(0x0100, 0x00)\n      dup2\n      sload\n      dup2\n      0xff\n      mul\n      not\n      and\n      swap1\n      dup4\n      iszero\n      iszero\n      mul\n      or\n      swap1\n      sstore\n      pop\n      pop\n      pop\n        /* \"contract/todo.sol\":345:447  function add(string memory _content) public isOwner {... */\n      pop\n      jump\t// out\n        /* \"contract/todo.sol\":641:752  function update(uint _id, string memory _content) public isOwner {... */\n    tag_38:\n        /* \"contract/todo.sol\":310:320  msg.sender */\n      caller\n        /* \"contract/todo.sol\":301:320  owner == msg.sender */\n      0xffffffffffffffffffffffffffffffffffffffff\n      and\n        /* \"contract/todo.sol\":301:306  owner */\n      0x00\n      dup1\n      sload\n      swap1\n      0x0100\n      exp\n      swap1\n      div\n      0xffffffffffffffffffffffffffffffffffffffff\n      and\n        /* \"contract/todo.sol\":301:320  owner == msg.sender */\n      0xffffffffffffffffffffffffffffffffffffffff\n      and\n      eq\n        /* \"contract/todo.sol\":293:321  require(owner == msg.sender) */\n      tag_106\n      jumpi\n      0x00\n      dup1\n      revert\n    tag_106:\n        /* \"contract/todo.sol\":737:745  _content */\n      dup1\n        /* \"contract/todo.sol\":716:721  tasks */\n      0x01\n        /* \"contract/todo.sol\":722:725  _id */\n      dup4\n        /* \"contract/todo.sol\":716:726  tasks[_id] */\n      dup2\n      sload\n      dup2\n      lt\n      tag_108\n      jumpi\n      tag_109\n      tag_64\n      jump\t// in\n    tag_109:\n    tag_108:\n      swap1\n      0x00\n      mstore\n      keccak256(0x00, 0x20)\n      swap1\n      0x02\n      mul\n      add\n        /* \"contract/todo.sol\":716:734  tasks[_id].content */\n      0x00\n      add\n        /* \"contract/todo.sol\":716:745  tasks[_id].content = _content */\n      swap1\n      dup2\n      tag_111\n      swap2\n      swap1\n      tag_104\n      jump\t// in\n    tag_111:\n      pop\n        /* \"contract/todo.sol\":641:752  function update(uint _id, string memory _content) public isOwner {... */\n      pop\n      pop\n      jump\t// out\n    tag_78:\n      pop\n      dup1\n      sload\n      tag_112\n      swap1\n      tag_44\n      jump\t// in\n    tag_112:\n      0x00\n      dup3\n      sstore\n      dup1\n      0x1f\n      lt\n      tag_114\n      jumpi\n      pop\n      jump(tag_113)\n    tag_114:\n      0x1f\n      add\n      0x20\n      swap1\n      div\n      swap1\n      0x00\n      mstore\n      keccak256(0x00, 0x20)\n      swap1\n      dup2\n      add\n      swap1\n      tag_115\n      swap2\n      swap1\n      tag_116\n      jump\t// in\n    tag_115:\n    tag_113:\n      pop\n      jump\t// out\n    tag_89:\n      mload(0x40)\n      dup1\n      0x40\n      add\n      0x40\n      mstore\n      dup1\n      0x60\n      dup2\n      mstore\n      0x20\n      add\n      iszero(iszero(0x00))\n      dup2\n      mstore\n      pop\n      swap1\n      jump\t// out\n    tag_116:\n    tag_117:\n      dup1\n      dup3\n      gt\n      iszero\n      tag_118\n      jumpi\n      0x00\n      dup2\n      0x00\n      swap1\n      sstore\n      pop\n      0x01\n      add\n      jump(tag_117)\n    tag_118:\n      pop\n      swap1\n      jump\t// out\n        /* \"#utility.yul\":7:141   */\n    tag_119:\n        /* \"#utility.yul\":94:100   */\n      0x00\n        /* \"#utility.yul\":128:133   */\n      dup2\n        /* \"#utility.yul\":122:134   */\n      mload\n        /* \"#utility.yul\":112:134   */\n      swap1\n      pop\n        /* \"#utility.yul\":7:141   */\n      swap2\n      swap1\n      pop\n      jump\t// out\n        /* \"#utility.yul\":147:351   */\n    tag_120:\n        /* \"#utility.yul\":266:277   */\n      0x00\n        /* \"#utility.yul\":300:306   */\n      dup3\n        /* \"#utility.yul\":295:298   */\n      dup3\n        /* \"#utility.yul\":288:307   */\n      mstore\n        /* \"#utility.yul\":340:344   */\n      0x20\n        /* \"#utility.yul\":335:338   */\n      dup3\n        /* \"#utility.yul\":331:345   */\n      add\n        /* \"#utility.yul\":316:345   */\n      swap1\n      pop\n        /* \"#utility.yul\":147:351   */\n      swap3\n      swap2\n      pop\n      pop\n      jump\t// out\n        /* \"#utility.yul\":357:509   */\n    tag_121:\n        /* \"#utility.yul\":444:448   */\n      0x00\n        /* \"#utility.yul\":467:470   */\n      dup2\n        /* \"#utility.yul\":459:470   */\n      swap1\n      pop\n        /* \"#utility.yul\":497:501   */\n      0x20\n        /* \"#utility.yul\":492:495   */\n      dup3\n        /* \"#utility.yul\":488:502   */\n      add\n        /* \"#utility.yul\":480:502   */\n      swap1\n      pop\n        /* \"#utility.yul\":357:509   */\n      swap2\n      swap1\n      pop\n      jump\t// out\n        /* \"#utility.yul\":515:614   */\n    tag_122:\n        /* \"#utility.yul\":567:573   */\n      0x00\n        /* \"#utility.yul\":601:606   */\n      dup2\n        /* \"#utility.yul\":595:607   */\n      mload\n        /* \"#utility.yul\":585:607   */\n      swap1\n      pop\n        /* \"#utility.yul\":515:614   */\n      swap2\n      swap1\n      pop\n      jump\t// out\n        /* \"#utility.yul\":620:779   */\n    tag_123:\n        /* \"#utility.yul\":694:705   */\n      0x00\n        /* \"#utility.yul\":728:734   */\n      dup3\n        /* \"#utility.yul\":723:726   */\n      dup3\n        /* \"#utility.yul\":716:735   */\n      mstore\n        /* \"#utility.yul\":768:772   */\n      0x20\n        /* \"#utility.yul\":763:766   */\n      dup3\n        /* \"#utility.yul\":759:773   */\n      add\n        /* \"#utility.yul\":744:773   */\n      swap1\n      pop\n        /* \"#utility.yul\":620:779   */\n      swap3\n      swap2\n      pop\n      pop\n      jump\t// out\n        /* \"#utility.yul\":785:1031   */\n    tag_124:\n        /* \"#utility.yul\":866:867   */\n      0x00\n        /* \"#utility.yul\":876:989   */\n    tag_180:\n        /* \"#utility.yul\":890:896   */\n      dup4\n        /* \"#utility.yul\":887:888   */\n      dup2\n        /* \"#utility.yul\":884:897   */\n      lt\n        /* \"#utility.yul\":876:989   */\n      iszero\n      tag_182\n      jumpi\n        /* \"#utility.yul\":975:976   */\n      dup1\n        /* \"#utility.yul\":970:973   */\n      dup3\n        /* \"#utility.yul\":966:977   */\n      add\n        /* \"#utility.yul\":960:978   */\n      mload\n        /* \"#utility.yul\":956:957   */\n      dup2\n        /* \"#utility.yul\":951:954   */\n      dup5\n        /* \"#utility.yul\":947:958   */\n      add\n        /* \"#utility.yul\":940:979   */\n      mstore\n        /* \"#utility.yul\":912:914   */\n      0x20\n        /* \"#utility.yul\":909:910   */\n      dup2\n        /* \"#utility.yul\":905:915   */\n      add\n        /* \"#utility.yul\":900:915   */\n      swap1\n      pop\n        /* \"#utility.yul\":876:989   */\n      jump(tag_180)\n    tag_182:\n        /* \"#utility.yul\":1023:1024   */\n      0x00\n        /* \"#utility.yul\":1014:1020   */\n      dup5\n        /* \"#utility.yul\":1009:1012   */\n      dup5\n        /* \"#utility.yul\":1005:1021   */\n      add\n        /* \"#utility.yul\":998:1025   */\n      mstore\n        /* \"#utility.yul\":847:1031   */\n      pop\n        /* \"#utility.yul\":785:1031   */\n      pop\n      pop\n      pop\n      jump\t// out\n        /* \"#utility.yul\":1037:1139   */\n    tag_125:\n        /* \"#utility.yul\":1078:1084   */\n      0x00\n        /* \"#utility.yul\":1129:1131   */\n      0x1f\n        /* \"#utility.yul\":1125:1132   */\n      not\n        /* \"#utility.yul\":1120:1122   */\n      0x1f\n        /* \"#utility.yul\":1113:1118   */\n      dup4\n        /* \"#utility.yul\":1109:1123   */\n      add\n        /* \"#utility.yul\":1105:1133   */\n      and\n        /* \"#utility.yul\":1095:1133   */\n      swap1\n      pop\n        /* \"#utility.yul\":1037:1139   */\n      swap2\n      swap1\n      pop\n      jump\t// out\n        /* \"#utility.yul\":1145:1502   */\n    tag_126:\n        /* \"#utility.yul\":1223:1226   */\n      0x00\n        /* \"#utility.yul\":1251:1290   */\n      tag_185\n        /* \"#utility.yul\":1284:1289   */\n      dup3\n        /* \"#utility.yul\":1251:1290   */\n      tag_122\n      jump\t// in\n    tag_185:\n        /* \"#utility.yul\":1306:1367   */\n      tag_186\n        /* \"#utility.yul\":1360:1366   */\n      dup2\n        /* \"#utility.yul\":1355:1358   */\n      dup6\n        /* \"#utility.yul\":1306:1367   */\n      tag_123\n      jump\t// in\n    tag_186:\n        /* \"#utility.yul\":1299:1367   */\n      swap4\n      pop\n        /* \"#utility.yul\":1376:1441   */\n      tag_187\n        /* \"#utility.yul\":1434:1440   */\n      dup2\n        /* \"#utility.yul\":1429:1432   */\n      dup6\n        /* \"#utility.yul\":1422:1426   */\n      0x20\n        /* \"#utility.yul\":1415:1420   */\n      dup7\n        /* \"#utility.yul\":1411:1427   */\n      add\n        /* \"#utility.yul\":1376:1441   */\n      tag_124\n      jump\t// in\n    tag_187:\n        /* \"#utility.yul\":1466:1495   */\n      tag_188\n        /* \"#utility.yul\":1488:1494   */\n      dup2\n        /* \"#utility.yul\":1466:1495   */\n      tag_125\n      jump\t// in\n    tag_188:\n        /* \"#utility.yul\":1461:1464   */\n      dup5\n        /* \"#utility.yul\":1457:1496   */\n      add\n        /* \"#utility.yul\":1450:1496   */\n      swap2\n      pop\n        /* \"#utility.yul\":1227:1502   */\n      pop\n        /* \"#utility.yul\":1145:1502   */\n      swap3\n      swap2\n      pop\n      pop\n      jump\t// out\n        /* \"#utility.yul\":1508:1598   */\n    tag_127:\n        /* \"#utility.yul\":1542:1549   */\n      0x00\n        /* \"#utility.yul\":1585:1590   */\n      dup2\n        /* \"#utility.yul\":1578:1591   */\n      iszero\n        /* \"#utility.yul\":1571:1592   */\n      iszero\n        /* \"#utility.yul\":1560:1592   */\n      swap1\n      pop\n        /* \"#utility.yul\":1508:1598   */\n      swap2\n      swap1\n      pop\n      jump\t// out\n        /* \"#utility.yul\":1604:1703   */\n    tag_128:\n        /* \"#utility.yul\":1675:1696   */\n      tag_191\n        /* \"#utility.yul\":1690:1695   */\n      dup2\n        /* \"#utility.yul\":1675:1696   */\n      tag_127\n      jump\t// in\n    tag_191:\n        /* \"#utility.yul\":1670:1673   */\n      dup3\n        /* \"#utility.yul\":1663:1697   */\n      mstore\n        /* \"#utility.yul\":1604:1703   */\n      pop\n      pop\n      jump\t// out\n        /* \"#utility.yul\":1753:2338   */\n    tag_129:\n        /* \"#utility.yul\":1852:1855   */\n      0x00\n        /* \"#utility.yul\":1888:1892   */\n      0x40\n        /* \"#utility.yul\":1883:1886   */\n      dup4\n        /* \"#utility.yul\":1879:1893   */\n      add\n        /* \"#utility.yul\":1978:1982   */\n      0x00\n        /* \"#utility.yul\":1971:1976   */\n      dup4\n        /* \"#utility.yul\":1967:1983   */\n      add\n        /* \"#utility.yul\":1961:1984   */\n      mload\n        /* \"#utility.yul\":2031:2034   */\n      dup5\n        /* \"#utility.yul\":2025:2029   */\n      dup3\n        /* \"#utility.yul\":2021:2035   */\n      sub\n        /* \"#utility.yul\":2014:2018   */\n      0x00\n        /* \"#utility.yul\":2009:2012   */\n      dup7\n        /* \"#utility.yul\":2005:2019   */\n      add\n        /* \"#utility.yul\":1998:2036   */\n      mstore\n        /* \"#utility.yul\":2057:2130   */\n      tag_193\n        /* \"#utility.yul\":2125:2129   */\n      dup3\n        /* \"#utility.yul\":2111:2123   */\n      dup3\n        /* \"#utility.yul\":2057:2130   */\n      tag_126\n      jump\t// in\n    tag_193:\n        /* \"#utility.yul\":2049:2130   */\n      swap2\n      pop\n        /* \"#utility.yul\":1903:2141   */\n      pop\n        /* \"#utility.yul\":2225:2229   */\n      0x20\n        /* \"#utility.yul\":2218:2223   */\n      dup4\n        /* \"#utility.yul\":2214:2230   */\n      add\n        /* \"#utility.yul\":2208:2231   */\n      mload\n        /* \"#utility.yul\":2244:2301   */\n      tag_194\n        /* \"#utility.yul\":2295:2299   */\n      0x20\n        /* \"#utility.yul\":2290:2293   */\n      dup7\n        /* \"#utility.yul\":2286:2300   */\n      add\n        /* \"#utility.yul\":2272:2284   */\n      dup3\n        /* \"#utility.yul\":2244:2301   */\n      tag_128\n      jump\t// in\n    tag_194:\n        /* \"#utility.yul\":2151:2311   */\n      pop\n        /* \"#utility.yul\":2328:2332   */\n      dup1\n        /* \"#utility.yul\":2321:2332   */\n      swap2\n      pop\n        /* \"#utility.yul\":1857:2338   */\n      pop\n        /* \"#utility.yul\":1753:2338   */\n      swap3\n      swap2\n      pop\n      pop\n      jump\t// out\n        /* \"#utility.yul\":2344:2580   */\n    tag_130:\n        /* \"#utility.yul\":2453:2463   */\n      0x00\n        /* \"#utility.yul\":2488:2574   */\n      tag_196\n        /* \"#utility.yul\":2570:2573   */\n      dup4\n        /* \"#utility.yul\":2562:2568   */\n      dup4\n        /* \"#utility.yul\":2488:2574   */\n      tag_129\n      jump\t// in\n    tag_196:\n        /* \"#utility.yul\":2474:2574   */\n      swap1\n      pop\n        /* \"#utility.yul\":2344:2580   */\n      swap3\n      swap2\n      pop\n      pop\n      jump\t// out\n        /* \"#utility.yul\":2586:2719   */\n    tag_131:\n        /* \"#utility.yul\":2676:2680   */\n      0x00\n        /* \"#utility.yul\":2708:2712   */\n      0x20\n        /* \"#utility.yul\":2703:2706   */\n      dup3\n        /* \"#utility.yul\":2699:2713   */\n      add\n        /* \"#utility.yul\":2691:2713   */\n      swap1\n      pop\n        /* \"#utility.yul\":2586:2719   */\n      swap2\n      swap1\n      pop\n      jump\t// out\n        /* \"#utility.yul\":2773:3844   */\n    tag_132:\n        /* \"#utility.yul\":2932:2935   */\n      0x00\n        /* \"#utility.yul\":2961:3035   */\n      tag_199\n        /* \"#utility.yul\":3029:3034   */\n      dup3\n        /* \"#utility.yul\":2961:3035   */\n      tag_119\n      jump\t// in\n    tag_199:\n        /* \"#utility.yul\":3051:3157   */\n      tag_200\n        /* \"#utility.yul\":3150:3156   */\n      dup2\n        /* \"#utility.yul\":3145:3148   */\n      dup6\n        /* \"#utility.yul\":3051:3157   */\n      tag_120\n      jump\t// in\n    tag_200:\n        /* \"#utility.yul\":3044:3157   */\n      swap4\n      pop\n        /* \"#utility.yul\":3183:3186   */\n      dup4\n        /* \"#utility.yul\":3228:3232   */\n      0x20\n        /* \"#utility.yul\":3220:3226   */\n      dup3\n        /* \"#utility.yul\":3216:3233   */\n      mul\n        /* \"#utility.yul\":3211:3214   */\n      dup6\n        /* \"#utility.yul\":3207:3234   */\n      add\n        /* \"#utility.yul\":3258:3334   */\n      tag_201\n        /* \"#utility.yul\":3328:3333   */\n      dup6\n        /* \"#utility.yul\":3258:3334   */\n      tag_121\n      jump\t// in\n    tag_201:\n        /* \"#utility.yul\":3357:3364   */\n      dup1\n        /* \"#utility.yul\":3388:3389   */\n      0x00\n        /* \"#utility.yul\":3373:3799   */\n    tag_202:\n        /* \"#utility.yul\":3398:3404   */\n      dup6\n        /* \"#utility.yul\":3395:3396   */\n      dup2\n        /* \"#utility.yul\":3392:3405   */\n      lt\n        /* \"#utility.yul\":3373:3799   */\n      iszero\n      tag_204\n      jumpi\n        /* \"#utility.yul\":3469:3478   */\n      dup5\n        /* \"#utility.yul\":3463:3467   */\n      dup5\n        /* \"#utility.yul\":3459:3479   */\n      sub\n        /* \"#utility.yul\":3454:3457   */\n      dup10\n        /* \"#utility.yul\":3447:3480   */\n      mstore\n        /* \"#utility.yul\":3520:3526   */\n      dup2\n        /* \"#utility.yul\":3514:3527   */\n      mload\n        /* \"#utility.yul\":3548:3652   */\n      tag_205\n        /* \"#utility.yul\":3647:3651   */\n      dup6\n        /* \"#utility.yul\":3632:3645   */\n      dup3\n        /* \"#utility.yul\":3548:3652   */\n      tag_130\n      jump\t// in\n    tag_205:\n        /* \"#utility.yul\":3540:3652   */\n      swap5\n      pop\n        /* \"#utility.yul\":3675:3755   */\n      tag_206\n        /* \"#utility.yul\":3748:3754   */\n      dup4\n        /* \"#utility.yul\":3675:3755   */\n      tag_131\n      jump\t// in\n    tag_206:\n        /* \"#utility.yul\":3665:3755   */\n      swap3\n      pop\n        /* \"#utility.yul\":3784:3788   */\n      0x20\n        /* \"#utility.yul\":3779:3782   */\n      dup11\n        /* \"#utility.yul\":3775:3789   */\n      add\n        /* \"#utility.yul\":3768:3789   */\n      swap10\n      pop\n        /* \"#utility.yul\":3433:3799   */\n      pop\n        /* \"#utility.yul\":3420:3421   */\n      0x01\n        /* \"#utility.yul\":3417:3418   */\n      dup2\n        /* \"#utility.yul\":3413:3422   */\n      add\n        /* \"#utility.yul\":3408:3422   */\n      swap1\n      pop\n        /* \"#utility.yul\":3373:3799   */\n      jump(tag_202)\n    tag_204:\n        /* \"#utility.yul\":3377:3391   */\n      pop\n        /* \"#utility.yul\":3815:3819   */\n      dup3\n        /* \"#utility.yul\":3808:3819   */\n      swap8\n      pop\n        /* \"#utility.yul\":3835:3838   */\n      dup8\n        /* \"#utility.yul\":3828:3838   */\n      swap6\n      pop\n        /* \"#utility.yul\":2937:3844   */\n      pop\n      pop\n      pop\n      pop\n      pop\n        /* \"#utility.yul\":2773:3844   */\n      swap3\n      swap2\n      pop\n      pop\n      jump\t// out\n        /* \"#utility.yul\":3850:4303   */\n    tag_14:\n        /* \"#utility.yul\":4033:4037   */\n      0x00\n        /* \"#utility.yul\":4071:4073   */\n      0x20\n        /* \"#utility.yul\":4060:4069   */\n      dup3\n        /* \"#utility.yul\":4056:4074   */\n      add\n        /* \"#utility.yul\":4048:4074   */\n      swap1\n      pop\n        /* \"#utility.yul\":4120:4129   */\n      dup2\n        /* \"#utility.yul\":4114:4118   */\n      dup2\n        /* \"#utility.yul\":4110:4130   */\n      sub\n        /* \"#utility.yul\":4106:4107   */\n      0x00\n        /* \"#utility.yul\":4095:4104   */\n      dup4\n        /* \"#utility.yul\":4091:4108   */\n      add\n        /* \"#utility.yul\":4084:4131   */\n      mstore\n        /* \"#utility.yul\":4148:4296   */\n      tag_208\n        /* \"#utility.yul\":4291:4295   */\n      dup2\n        /* \"#utility.yul\":4282:4288   */\n      dup5\n        /* \"#utility.yul\":4148:4296   */\n      tag_132\n      jump\t// in\n    tag_208:\n        /* \"#utility.yul\":4140:4296   */\n      swap1\n      pop\n        /* \"#utility.yul\":3850:4303   */\n      swap3\n      swap2\n      pop\n      pop\n      jump\t// out\n        /* \"#utility.yul\":4309:4384   */\n    tag_133:\n        /* \"#utility.yul\":4342:4348   */\n      0x00\n        /* \"#utility.yul\":4375:4377   */\n      0x40\n        /* \"#utility.yul\":4369:4378   */\n      mload\n        /* \"#utility.yul\":4359:4378   */\n      swap1\n      pop\n        /* \"#utility.yul\":4309:4384   */\n      swap1\n      jump\t// out\n        /* \"#utility.yul\":4390:4507   */\n    tag_134:\n        /* \"#utility.yul\":4499:4500   */\n      0x00\n        /* \"#utility.yul\":4496:4497   */\n      dup1\n        /* \"#utility.yul\":4489:4501   */\n      revert\n        /* \"#utility.yul\":4513:4630   */\n    tag_135:\n        /* \"#utility.yul\":4622:4623   */\n      0x00\n        /* \"#utility.yul\":4619:4620   */\n      dup1\n        /* \"#utility.yul\":4612:4624   */\n      revert\n        /* \"#utility.yul\":4636:4713   */\n    tag_136:\n        /* \"#utility.yul\":4673:4680   */\n      0x00\n        /* \"#utility.yul\":4702:4707   */\n      dup2\n        /* \"#utility.yul\":4691:4707   */\n      swap1\n      pop\n        /* \"#utility.yul\":4636:4713   */\n      swap2\n      swap1\n      pop\n      jump\t// out\n        /* \"#utility.yul\":4719:4841   */\n    tag_137:\n        /* \"#utility.yul\":4792:4816   */\n      tag_214\n        /* \"#utility.yul\":4810:4815   */\n      dup2\n        /* \"#utility.yul\":4792:4816   */\n      tag_136\n      jump\t// in\n    tag_214:\n        /* \"#utility.yul\":4785:4790   */\n      dup2\n        /* \"#utility.yul\":4782:4817   */\n      eq\n        /* \"#utility.yul\":4772:4835   */\n      tag_215\n      jumpi\n        /* \"#utility.yul\":4831:4832   */\n      0x00\n        /* \"#utility.yul\":4828:4829   */\n      dup1\n        /* \"#utility.yul\":4821:4833   */\n      revert\n        /* \"#utility.yul\":4772:4835   */\n    tag_215:\n        /* \"#utility.yul\":4719:4841   */\n      pop\n      jump\t// out\n        /* \"#utility.yul\":4847:4986   */\n    tag_138:\n        /* \"#utility.yul\":4893:4898   */\n      0x00\n        /* \"#utility.yul\":4931:4937   */\n      dup2\n        /* \"#utility.yul\":4918:4938   */\n      calldataload\n        /* \"#utility.yul\":4909:4938   */\n      swap1\n      pop\n        /* \"#utility.yul\":4947:4980   */\n      tag_217\n        /* \"#utility.yul\":4974:4979   */\n      dup2\n        /* \"#utility.yul\":4947:4980   */\n      tag_137\n      jump\t// in\n    tag_217:\n        /* \"#utility.yul\":4847:4986   */\n      swap3\n      swap2\n      pop\n      pop\n      jump\t// out\n        /* \"#utility.yul\":4992:5321   */\n    tag_17:\n        /* \"#utility.yul\":5051:5057   */\n      0x00\n        /* \"#utility.yul\":5100:5102   */\n      0x20\n        /* \"#utility.yul\":5088:5097   */\n      dup3\n        /* \"#utility.yul\":5079:5086   */\n      dup5\n        /* \"#utility.yul\":5075:5098   */\n      sub\n        /* \"#utility.yul\":5071:5103   */\n      slt\n        /* \"#utility.yul\":5068:5187   */\n      iszero\n      tag_219\n      jumpi\n        /* \"#utility.yul\":5106:5185   */\n      tag_220\n      tag_134\n      jump\t// in\n    tag_220:\n        /* \"#utility.yul\":5068:5187   */\n    tag_219:\n        /* \"#utility.yul\":5226:5227   */\n      0x00\n        /* \"#utility.yul\":5251:5304   */\n      tag_221\n        /* \"#utility.yul\":5296:5303   */\n      dup5\n        /* \"#utility.yul\":5287:5293   */\n      dup3\n        /* \"#utility.yul\":5276:5285   */\n      dup6\n        /* \"#utility.yul\":5272:5294   */\n      add\n        /* \"#utility.yul\":5251:5304   */\n      tag_138\n      jump\t// in\n    tag_221:\n        /* \"#utility.yul\":5241:5304   */\n      swap2\n      pop\n        /* \"#utility.yul\":5197:5314   */\n      pop\n        /* \"#utility.yul\":4992:5321   */\n      swap3\n      swap2\n      pop\n      pop\n      jump\t// out\n        /* \"#utility.yul\":5327:5453   */\n    tag_139:\n        /* \"#utility.yul\":5364:5371   */\n      0x00\n        /* \"#utility.yul\":5404:5446   */\n      0xffffffffffffffffffffffffffffffffffffffff\n        /* \"#utility.yul\":5397:5402   */\n      dup3\n        /* \"#utility.yul\":5393:5447   */\n      and\n        /* \"#utility.yul\":5382:5447   */\n      swap1\n      pop\n        /* \"#utility.yul\":5327:5453   */\n      swap2\n      swap1\n      pop\n      jump\t// out\n        /* \"#utility.yul\":5459:5555   */\n    tag_140:\n        /* \"#utility.yul\":5496:5503   */\n      0x00\n        /* \"#utility.yul\":5525:5549   */\n      tag_224\n        /* \"#utility.yul\":5543:5548   */\n      dup3\n        /* \"#utility.yul\":5525:5549   */\n      tag_139\n      jump\t// in\n    tag_224:\n        /* \"#utility.yul\":5514:5549   */\n      swap1\n      pop\n        /* \"#utility.yul\":5459:5555   */\n      swap2\n      swap1\n      pop\n      jump\t// out\n        /* \"#utility.yul\":5561:5679   */\n    tag_141:\n        /* \"#utility.yul\":5648:5672   */\n      tag_226\n        /* \"#utility.yul\":5666:5671   */\n      dup2\n        /* \"#utility.yul\":5648:5672   */\n      tag_140\n      jump\t// in\n    tag_226:\n        /* \"#utility.yul\":5643:5646   */\n      dup3\n        /* \"#utility.yul\":5636:5673   */\n      mstore\n        /* \"#utility.yul\":5561:5679   */\n      pop\n      pop\n      jump\t// out\n        /* \"#utility.yul\":5685:5907   */\n    tag_25:\n        /* \"#utility.yul\":5778:5782   */\n      0x00\n        /* \"#utility.yul\":5816:5818   */\n      0x20\n        /* \"#utility.yul\":5805:5814   */\n      dup3\n        /* \"#utility.yul\":5801:5819   */\n      add\n        /* \"#utility.yul\":5793:5819   */\n      swap1\n      pop\n        /* \"#utility.yul\":5829:5900   */\n      tag_228\n        /* \"#utility.yul\":5897:5898   */\n      0x00\n        /* \"#utility.yul\":5886:5895   */\n      dup4\n        /* \"#utility.yul\":5882:5899   */\n      add\n        /* \"#utility.yul\":5873:5879   */\n      dup5\n        /* \"#utility.yul\":5829:5900   */\n      tag_141\n      jump\t// in\n    tag_228:\n        /* \"#utility.yul\":5685:5907   */\n      swap3\n      swap2\n      pop\n      pop\n      jump\t// out\n        /* \"#utility.yul\":5957:6552   */\n    tag_142:\n        /* \"#utility.yul\":6066:6069   */\n      0x00\n        /* \"#utility.yul\":6102:6106   */\n      0x40\n        /* \"#utility.yul\":6097:6100   */\n      dup4\n        /* \"#utility.yul\":6093:6107   */\n      add\n        /* \"#utility.yul\":6192:6196   */\n      0x00\n        /* \"#utility.yul\":6185:6190   */\n      dup4\n        /* \"#utility.yul\":6181:6197   */\n      add\n        /* \"#utility.yul\":6175:6198   */\n      mload\n        /* \"#utility.yul\":6245:6248   */\n      dup5\n        /* \"#utility.yul\":6239:6243   */\n      dup3\n        /* \"#utility.yul\":6235:6249   */\n      sub\n        /* \"#utility.yul\":6228:6232   */\n      0x00\n        /* \"#utility.yul\":6223:6226   */\n      dup7\n        /* \"#utility.yul\":6219:6233   */\n      add\n        /* \"#utility.yul\":6212:6250   */\n      mstore\n        /* \"#utility.yul\":6271:6344   */\n      tag_230\n        /* \"#utility.yul\":6339:6343   */\n      dup3\n        /* \"#utility.yul\":6325:6337   */\n      dup3\n        /* \"#utility.yul\":6271:6344   */\n      tag_126\n      jump\t// in\n    tag_230:\n        /* \"#utility.yul\":6263:6344   */\n      swap2\n      pop\n        /* \"#utility.yul\":6117:6355   */\n      pop\n        /* \"#utility.yul\":6439:6443   */\n      0x20\n        /* \"#utility.yul\":6432:6437   */\n      dup4\n        /* \"#utility.yul\":6428:6444   */\n      add\n        /* \"#utility.yul\":6422:6445   */\n      mload\n        /* \"#utility.yul\":6458:6515   */\n      tag_231\n        /* \"#utility.yul\":6509:6513   */\n      0x20\n        /* \"#utility.yul\":6504:6507   */\n      dup7\n        /* \"#utility.yul\":6500:6514   */\n      add\n        /* \"#utility.yul\":6486:6498   */\n      dup3\n        /* \"#utility.yul\":6458:6515   */\n      tag_128\n      jump\t// in\n    tag_231:\n        /* \"#utility.yul\":6365:6525   */\n      pop\n        /* \"#utility.yul\":6542:6546   */\n      dup1\n        /* \"#utility.yul\":6535:6546   */\n      swap2\n      pop\n        /* \"#utility.yul\":6071:6552   */\n      pop\n        /* \"#utility.yul\":5957:6552   */\n      swap3\n      swap2\n      pop\n      pop\n      jump\t// out\n        /* \"#utility.yul\":6558:6911   */\n    tag_30:\n        /* \"#utility.yul\":6691:6695   */\n      0x00\n        /* \"#utility.yul\":6729:6731   */\n      0x20\n        /* \"#utility.yul\":6718:6727   */\n      dup3\n        /* \"#utility.yul\":6714:6732   */\n      add\n        /* \"#utility.yul\":6706:6732   */\n      swap1\n      pop\n        /* \"#utility.yul\":6778:6787   */\n      dup2\n        /* \"#utility.yul\":6772:6776   */\n      dup2\n        /* \"#utility.yul\":6768:6788   */\n      sub\n        /* \"#utility.yul\":6764:6765   */\n      0x00\n        /* \"#utility.yul\":6753:6762   */\n      dup4\n        /* \"#utility.yul\":6749:6766   */\n      add\n        /* \"#utility.yul\":6742:6789   */\n      mstore\n        /* \"#utility.yul\":6806:6904   */\n      tag_233\n        /* \"#utility.yul\":6899:6903   */\n      dup2\n        /* \"#utility.yul\":6890:6896   */\n      dup5\n        /* \"#utility.yul\":6806:6904   */\n      tag_142\n      jump\t// in\n    tag_233:\n        /* \"#utility.yul\":6798:6904   */\n      swap1\n      pop\n        /* \"#utility.yul\":6558:6911   */\n      swap3\n      swap2\n      pop\n      pop\n      jump\t// out\n        /* \"#utility.yul\":6917:7034   */\n    tag_143:\n        /* \"#utility.yul\":7026:7027   */\n      0x00\n        /* \"#utility.yul\":7023:7024   */\n      dup1\n        /* \"#utility.yul\":7016:7028   */\n      revert\n        /* \"#utility.yul\":7040:7157   */\n    tag_144:\n        /* \"#utility.yul\":7149:7150   */\n      0x00\n        /* \"#utility.yul\":7146:7147   */\n      dup1\n        /* \"#utility.yul\":7139:7151   */\n      revert\n        /* \"#utility.yul\":7163:7343   */\n    tag_145:\n        /* \"#utility.yul\":7211:7288   */\n      0x4e487b7100000000000000000000000000000000000000000000000000000000\n        /* \"#utility.yul\":7208:7209   */\n      0x00\n        /* \"#utility.yul\":7201:7289   */\n      mstore\n        /* \"#utility.yul\":7308:7312   */\n      0x41\n        /* \"#utility.yul\":7305:7306   */\n      0x04\n        /* \"#utility.yul\":7298:7313   */\n      mstore\n        /* \"#utility.yul\":7332:7336   */\n      0x24\n        /* \"#utility.yul\":7329:7330   */\n      0x00\n        /* \"#utility.yul\":7322:7337   */\n      revert\n        /* \"#utility.yul\":7349:7630   */\n    tag_146:\n        /* \"#utility.yul\":7432:7459   */\n      tag_238\n        /* \"#utility.yul\":7454:7458   */\n      dup3\n        /* \"#utility.yul\":7432:7459   */\n      tag_125\n      jump\t// in\n    tag_238:\n        /* \"#utility.yul\":7424:7430   */\n      dup2\n        /* \"#utility.yul\":7420:7460   */\n      add\n        /* \"#utility.yul\":7562:7568   */\n      dup2\n        /* \"#utility.yul\":7550:7560   */\n      dup2\n        /* \"#utility.yul\":7547:7569   */\n      lt\n        /* \"#utility.yul\":7526:7544   */\n      0xffffffffffffffff\n        /* \"#utility.yul\":7514:7524   */\n      dup3\n        /* \"#utility.yul\":7511:7545   */\n      gt\n        /* \"#utility.yul\":7508:7570   */\n      or\n        /* \"#utility.yul\":7505:7593   */\n      iszero\n      tag_239\n      jumpi\n        /* \"#utility.yul\":7573:7591   */\n      tag_240\n      tag_145\n      jump\t// in\n    tag_240:\n        /* \"#utility.yul\":7505:7593   */\n    tag_239:\n        /* \"#utility.yul\":7613:7623   */\n      dup1\n        /* \"#utility.yul\":7609:7611   */\n      0x40\n        /* \"#utility.yul\":7602:7624   */\n      mstore\n        /* \"#utility.yul\":7392:7630   */\n      pop\n        /* \"#utility.yul\":7349:7630   */\n      pop\n      pop\n      jump\t// out\n        /* \"#utility.yul\":7636:7765   */\n    tag_147:\n        /* \"#utility.yul\":7670:7676   */\n      0x00\n        /* \"#utility.yul\":7697:7717   */\n      tag_242\n      tag_133\n      jump\t// in\n    tag_242:\n        /* \"#utility.yul\":7687:7717   */\n      swap1\n      pop\n        /* \"#utility.yul\":7726:7759   */\n      tag_243\n        /* \"#utility.yul\":7754:7758   */\n      dup3\n        /* \"#utility.yul\":7746:7752   */\n      dup3\n        /* \"#utility.yul\":7726:7759   */\n      tag_146\n      jump\t// in\n    tag_243:\n        /* \"#utility.yul\":7636:7765   */\n      swap2\n      swap1\n      pop\n      jump\t// out\n        /* \"#utility.yul\":7771:8079   */\n    tag_148:\n        /* \"#utility.yul\":7833:7837   */\n      0x00\n        /* \"#utility.yul\":7923:7941   */\n      0xffffffffffffffff\n        /* \"#utility.yul\":7915:7921   */\n      dup3\n        /* \"#utility.yul\":7912:7942   */\n      gt\n        /* \"#utility.yul\":7909:7965   */\n      iszero\n      tag_245\n      jumpi\n        /* \"#utility.yul\":7945:7963   */\n      tag_246\n      tag_145\n      jump\t// in\n    tag_246:\n        /* \"#utility.yul\":7909:7965   */\n    tag_245:\n        /* \"#utility.yul\":7983:8012   */\n      tag_247\n        /* \"#utility.yul\":8005:8011   */\n      dup3\n        /* \"#utility.yul\":7983:8012   */\n      tag_125\n      jump\t// in\n    tag_247:\n        /* \"#utility.yul\":7975:8012   */\n      swap1\n      pop\n        /* \"#utility.yul\":8067:8071   */\n      0x20\n        /* \"#utility.yul\":8061:8065   */\n      dup2\n        /* \"#utility.yul\":8057:8072   */\n      add\n        /* \"#utility.yul\":8049:8072   */\n      swap1\n      pop\n        /* \"#utility.yul\":7771:8079   */\n      swap2\n      swap1\n      pop\n      jump\t// out\n        /* \"#utility.yul\":8085:8231   */\n    tag_149:\n        /* \"#utility.yul\":8182:8188   */\n      dup3\n        /* \"#utility.yul\":8177:8180   */\n      dup2\n        /* \"#utility.yul\":8172:8175   */\n      dup4\n        /* \"#utility.yul\":8159:8189   */\n      calldatacopy\n        /* \"#utility.yul\":8223:8224   */\n      0x00\n        /* \"#utility.yul\":8214:8220   */\n      dup4\n        /* \"#utility.yul\":8209:8212   */\n      dup4\n        /* \"#utility.yul\":8205:8221   */\n      add\n        /* \"#utility.yul\":8198:8225   */\n      mstore\n        /* \"#utility.yul\":8085:8231   */\n      pop\n      pop\n      pop\n      jump\t// out\n        /* \"#utility.yul\":8237:8662   */\n    tag_150:\n        /* \"#utility.yul\":8315:8320   */\n      0x00\n        /* \"#utility.yul\":8340:8406   */\n      tag_250\n        /* \"#utility.yul\":8356:8405   */\n      tag_251\n        /* \"#utility.yul\":8398:8404   */\n      dup5\n        /* \"#utility.yul\":8356:8405   */\n      tag_148\n      jump\t// in\n    tag_251:\n        /* \"#utility.yul\":8340:8406   */\n      tag_147\n      jump\t// in\n    tag_250:\n        /* \"#utility.yul\":8331:8406   */\n      swap1\n      pop\n        /* \"#utility.yul\":8429:8435   */\n      dup3\n        /* \"#utility.yul\":8422:8427   */\n      dup2\n        /* \"#utility.yul\":8415:8436   */\n      mstore\n        /* \"#utility.yul\":8467:8471   */\n      0x20\n        /* \"#utility.yul\":8460:8465   */\n      dup2\n        /* \"#utility.yul\":8456:8472   */\n      add\n        /* \"#utility.yul\":8505:8508   */\n      dup5\n        /* \"#utility.yul\":8496:8502   */\n      dup5\n        /* \"#utility.yul\":8491:8494   */\n      dup5\n        /* \"#utility.yul\":8487:8503   */\n      add\n        /* \"#utility.yul\":8484:8509   */\n      gt\n        /* \"#utility.yul\":8481:8593   */\n      iszero\n      tag_252\n      jumpi\n        /* \"#utility.yul\":8512:8591   */\n      tag_253\n      tag_144\n      jump\t// in\n    tag_253:\n        /* \"#utility.yul\":8481:8593   */\n    tag_252:\n        /* \"#utility.yul\":8602:8656   */\n      tag_254\n        /* \"#utility.yul\":8649:8655   */\n      dup5\n        /* \"#utility.yul\":8644:8647   */\n      dup3\n        /* \"#utility.yul\":8639:8642   */\n      dup6\n        /* \"#utility.yul\":8602:8656   */\n      tag_149\n      jump\t// in\n    tag_254:\n        /* \"#utility.yul\":8321:8662   */\n      pop\n        /* \"#utility.yul\":8237:8662   */\n      swap4\n      swap3\n      pop\n      pop\n      pop\n      jump\t// out\n        /* \"#utility.yul\":8682:9022   */\n    tag_151:\n        /* \"#utility.yul\":8738:8743   */\n      0x00\n        /* \"#utility.yul\":8787:8790   */\n      dup3\n        /* \"#utility.yul\":8780:8784   */\n      0x1f\n        /* \"#utility.yul\":8772:8778   */\n      dup4\n        /* \"#utility.yul\":8768:8785   */\n      add\n        /* \"#utility.yul\":8764:8791   */\n      slt\n        /* \"#utility.yul\":8754:8876   */\n      tag_256\n      jumpi\n        /* \"#utility.yul\":8795:8874   */\n      tag_257\n      tag_143\n      jump\t// in\n    tag_257:\n        /* \"#utility.yul\":8754:8876   */\n    tag_256:\n        /* \"#utility.yul\":8912:8918   */\n      dup2\n        /* \"#utility.yul\":8899:8919   */\n      calldataload\n        /* \"#utility.yul\":8937:9016   */\n      tag_258\n        /* \"#utility.yul\":9012:9015   */\n      dup5\n        /* \"#utility.yul\":9004:9010   */\n      dup3\n        /* \"#utility.yul\":8997:9001   */\n      0x20\n        /* \"#utility.yul\":8989:8995   */\n      dup7\n        /* \"#utility.yul\":8985:9002   */\n      add\n        /* \"#utility.yul\":8937:9016   */\n      tag_150\n      jump\t// in\n    tag_258:\n        /* \"#utility.yul\":8928:9016   */\n      swap2\n      pop\n        /* \"#utility.yul\":8744:9022   */\n      pop\n        /* \"#utility.yul\":8682:9022   */\n      swap3\n      swap2\n      pop\n      pop\n      jump\t// out\n        /* \"#utility.yul\":9028:9537   */\n    tag_33:\n        /* \"#utility.yul\":9097:9103   */\n      0x00\n        /* \"#utility.yul\":9146:9148   */\n      0x20\n        /* \"#utility.yul\":9134:9143   */\n      dup3\n        /* \"#utility.yul\":9125:9132   */\n      dup5\n        /* \"#utility.yul\":9121:9144   */\n      sub\n        /* \"#utility.yul\":9117:9149   */\n      slt\n        /* \"#utility.yul\":9114:9233   */\n      iszero\n      tag_260\n      jumpi\n        /* \"#utility.yul\":9152:9231   */\n      tag_261\n      tag_134\n      jump\t// in\n    tag_261:\n        /* \"#utility.yul\":9114:9233   */\n    tag_260:\n        /* \"#utility.yul\":9300:9301   */\n      0x00\n        /* \"#utility.yul\":9289:9298   */\n      dup3\n        /* \"#utility.yul\":9285:9302   */\n      add\n        /* \"#utility.yul\":9272:9303   */\n      calldataload\n        /* \"#utility.yul\":9330:9348   */\n      0xffffffffffffffff\n        /* \"#utility.yul\":9322:9328   */\n      dup2\n        /* \"#utility.yul\":9319:9349   */\n      gt\n        /* \"#utility.yul\":9316:9433   */\n      iszero\n      tag_262\n      jumpi\n        /* \"#utility.yul\":9352:9431   */\n      tag_263\n      tag_135\n      jump\t// in\n    tag_263:\n        /* \"#utility.yul\":9316:9433   */\n    tag_262:\n        /* \"#utility.yul\":9457:9520   */\n      tag_264\n        /* \"#utility.yul\":9512:9519   */\n      dup5\n        /* \"#utility.yul\":9503:9509   */\n      dup3\n        /* \"#utility.yul\":9492:9501   */\n      dup6\n        /* \"#utility.yul\":9488:9510   */\n      add\n        /* \"#utility.yul\":9457:9520   */\n      tag_151\n      jump\t// in\n    tag_264:\n        /* \"#utility.yul\":9447:9520   */\n      swap2\n      pop\n        /* \"#utility.yul\":9243:9530   */\n      pop\n        /* \"#utility.yul\":9028:9537   */\n      swap3\n      swap2\n      pop\n      pop\n      jump\t// out\n        /* \"#utility.yul\":9543:10197   */\n    tag_37:\n        /* \"#utility.yul\":9621:9627   */\n      0x00\n        /* \"#utility.yul\":9629:9635   */\n      dup1\n        /* \"#utility.yul\":9678:9680   */\n      0x40\n        /* \"#utility.yul\":9666:9675   */\n      dup4\n        /* \"#utility.yul\":9657:9664   */\n      dup6\n        /* \"#utility.yul\":9653:9676   */\n      sub\n        /* \"#utility.yul\":9649:9681   */\n      slt\n        /* \"#utility.yul\":9646:9765   */\n      iszero\n      tag_266\n      jumpi\n        /* \"#utility.yul\":9684:9763   */\n      tag_267\n      tag_134\n      jump\t// in\n    tag_267:\n        /* \"#utility.yul\":9646:9765   */\n    tag_266:\n        /* \"#utility.yul\":9804:9805   */\n      0x00\n        /* \"#utility.yul\":9829:9882   */\n      tag_268\n        /* \"#utility.yul\":9874:9881   */\n      dup6\n        /* \"#utility.yul\":9865:9871   */\n      dup3\n        /* \"#utility.yul\":9854:9863   */\n      dup7\n        /* \"#utility.yul\":9850:9872   */\n      add\n        /* \"#utility.yul\":9829:9882   */\n      tag_138\n      jump\t// in\n    tag_268:\n        /* \"#utility.yul\":9819:9882   */\n      swap3\n      pop\n        /* \"#utility.yul\":9775:9892   */\n      pop\n        /* \"#utility.yul\":9959:9961   */\n      0x20\n        /* \"#utility.yul\":9948:9957   */\n      dup4\n        /* \"#utility.yul\":9944:9962   */\n      add\n        /* \"#utility.yul\":9931:9963   */\n      calldataload\n        /* \"#utility.yul\":9990:10008   */\n      0xffffffffffffffff\n        /* \"#utility.yul\":9982:9988   */\n      dup2\n        /* \"#utility.yul\":9979:10009   */\n      gt\n        /* \"#utility.yul\":9976:10093   */\n      iszero\n      tag_269\n      jumpi\n        /* \"#utility.yul\":10012:10091   */\n      tag_270\n      tag_135\n      jump\t// in\n    tag_270:\n        /* \"#utility.yul\":9976:10093   */\n    tag_269:\n        /* \"#utility.yul\":10117:10180   */\n      tag_271\n        /* \"#utility.yul\":10172:10179   */\n      dup6\n        /* \"#utility.yul\":10163:10169   */\n      dup3\n        /* \"#utility.yul\":10152:10161   */\n      dup7\n        /* \"#utility.yul\":10148:10170   */\n      add\n        /* \"#utility.yul\":10117:10180   */\n      tag_151\n      jump\t// in\n    tag_271:\n        /* \"#utility.yul\":10107:10180   */\n      swap2\n      pop\n        /* \"#utility.yul\":9902:10190   */\n      pop\n        /* \"#utility.yul\":9543:10197   */\n      swap3\n      pop\n      swap3\n      swap1\n      pop\n      jump\t// out\n        /* \"#utility.yul\":10203:10383   */\n    tag_152:\n        /* \"#utility.yul\":10251:10328   */\n      0x4e487b7100000000000000000000000000000000000000000000000000000000\n        /* \"#utility.yul\":10248:10249   */\n      0x00\n        /* \"#utility.yul\":10241:10329   */\n      mstore\n        /* \"#utility.yul\":10348:10352   */\n      0x22\n        /* \"#utility.yul\":10345:10346   */\n      0x04\n        /* \"#utility.yul\":10338:10353   */\n      mstore\n        /* \"#utility.yul\":10372:10376   */\n      0x24\n        /* \"#utility.yul\":10369:10370   */\n      0x00\n        /* \"#utility.yul\":10362:10377   */\n      revert\n        /* \"#utility.yul\":10389:10709   */\n    tag_44:\n        /* \"#utility.yul\":10433:10439   */\n      0x00\n        /* \"#utility.yul\":10470:10471   */\n      0x02\n        /* \"#utility.yul\":10464:10468   */\n      dup3\n        /* \"#utility.yul\":10460:10472   */\n      div\n        /* \"#utility.yul\":10450:10472   */\n      swap1\n      pop\n        /* \"#utility.yul\":10517:10518   */\n      0x01\n        /* \"#utility.yul\":10511:10515   */\n      dup3\n        /* \"#utility.yul\":10507:10519   */\n      and\n        /* \"#utility.yul\":10538:10556   */\n      dup1\n        /* \"#utility.yul\":10528:10609   */\n      tag_274\n      jumpi\n        /* \"#utility.yul\":10594:10598   */\n      0x7f\n        /* \"#utility.yul\":10586:10592   */\n      dup3\n        /* \"#utility.yul\":10582:10599   */\n      and\n        /* \"#utility.yul\":10572:10599   */\n      swap2\n      pop\n        /* \"#utility.yul\":10528:10609   */\n    tag_274:\n        /* \"#utility.yul\":10656:10658   */\n      0x20\n        /* \"#utility.yul\":10648:10654   */\n      dup3\n        /* \"#utility.yul\":10645:10659   */\n      lt\n        /* \"#utility.yul\":10625:10643   */\n      dup2\n        /* \"#utility.yul\":10622:10660   */\n      sub\n        /* \"#utility.yul\":10619:10703   */\n      tag_275\n      jumpi\n        /* \"#utility.yul\":10675:10693   */\n      tag_276\n      tag_152\n      jump\t// in\n    tag_276:\n        /* \"#utility.yul\":10619:10703   */\n    tag_275:\n        /* \"#utility.yul\":10440:10709   */\n      pop\n        /* \"#utility.yul\":10389:10709   */\n      swap2\n      swap1\n      pop\n      jump\t// out\n        /* \"#utility.yul\":10715:10884   */\n    tag_153:\n        /* \"#utility.yul\":10799:10810   */\n      0x00\n        /* \"#utility.yul\":10833:10839   */\n      dup3\n        /* \"#utility.yul\":10828:10831   */\n      dup3\n        /* \"#utility.yul\":10821:10840   */\n      mstore\n        /* \"#utility.yul\":10873:10877   */\n      0x20\n        /* \"#utility.yul\":10868:10871   */\n      dup3\n        /* \"#utility.yul\":10864:10878   */\n      add\n        /* \"#utility.yul\":10849:10878   */\n      swap1\n      pop\n        /* \"#utility.yul\":10715:10884   */\n      swap3\n      swap2\n      pop\n      pop\n      jump\t// out\n        /* \"#utility.yul\":10890:11053   */\n    tag_154:\n        /* \"#utility.yul\":11030:11045   */\n      0x4f7574206f6620626f756e647300000000000000000000000000000000000000\n        /* \"#utility.yul\":11026:11027   */\n      0x00\n        /* \"#utility.yul\":11018:11024   */\n      dup3\n        /* \"#utility.yul\":11014:11028   */\n      add\n        /* \"#utility.yul\":11007:11046   */\n      mstore\n        /* \"#utility.yul\":10890:11053   */\n      pop\n      jump\t// out\n        /* \"#utility.yul\":11059:11425   */\n    tag_155:\n        /* \"#utility.yul\":11201:11204   */\n      0x00\n        /* \"#utility.yul\":11222:11289   */\n      tag_280\n        /* \"#utility.yul\":11286:11288   */\n      0x0d\n        /* \"#utility.yul\":11281:11284   */\n      dup4\n        /* \"#utility.yul\":11222:11289   */\n      tag_153\n      jump\t// in\n    tag_280:\n        /* \"#utility.yul\":11215:11289   */\n      swap2\n      pop\n        /* \"#utility.yul\":11298:11391   */\n      tag_281\n        /* \"#utility.yul\":11387:11390   */\n      dup3\n        /* \"#utility.yul\":11298:11391   */\n      tag_154\n      jump\t// in\n    tag_281:\n        /* \"#utility.yul\":11416:11418   */\n      0x20\n        /* \"#utility.yul\":11411:11414   */\n      dup3\n        /* \"#utility.yul\":11407:11419   */\n      add\n        /* \"#utility.yul\":11400:11419   */\n      swap1\n      pop\n        /* \"#utility.yul\":11059:11425   */\n      swap2\n      swap1\n      pop\n      jump\t// out\n        /* \"#utility.yul\":11431:11850   */\n    tag_54:\n        /* \"#utility.yul\":11597:11601   */\n      0x00\n        /* \"#utility.yul\":11635:11637   */\n      0x20\n        /* \"#utility.yul\":11624:11633   */\n      dup3\n        /* \"#utility.yul\":11620:11638   */\n      add\n        /* \"#utility.yul\":11612:11638   */\n      swap1\n      pop\n        /* \"#utility.yul\":11684:11693   */\n      dup2\n        /* \"#utility.yul\":11678:11682   */\n      dup2\n        /* \"#utility.yul\":11674:11694   */\n      sub\n        /* \"#utility.yul\":11670:11671   */\n      0x00\n        /* \"#utility.yul\":11659:11668   */\n      dup4\n        /* \"#utility.yul\":11655:11672   */\n      add\n        /* \"#utility.yul\":11648:11695   */\n      mstore\n        /* \"#utility.yul\":11712:11843   */\n      tag_283\n        /* \"#utility.yul\":11838:11842   */\n      dup2\n        /* \"#utility.yul\":11712:11843   */\n      tag_155\n      jump\t// in\n    tag_283:\n        /* \"#utility.yul\":11704:11843   */\n      swap1\n      pop\n        /* \"#utility.yul\":11431:11850   */\n      swap2\n      swap1\n      pop\n      jump\t// out\n        /* \"#utility.yul\":11856:12036   */\n    tag_156:\n        /* \"#utility.yul\":11904:11981   */\n      0x4e487b7100000000000000000000000000000000000000000000000000000000\n        /* \"#utility.yul\":11901:11902   */\n      0x00\n        /* \"#utility.yul\":11894:11982   */\n      mstore\n        /* \"#utility.yul\":12001:12005   */\n      0x11\n        /* \"#utility.yul\":11998:11999   */\n      0x04\n        /* \"#utility.yul\":11991:12006   */\n      mstore\n        /* \"#utility.yul\":12025:12029   */\n      0x24\n        /* \"#utility.yul\":12022:12023   */\n      0x00\n        /* \"#utility.yul\":12015:12030   */\n      revert\n        /* \"#utility.yul\":12042:12236   */\n    tag_59:\n        /* \"#utility.yul\":12082:12086   */\n      0x00\n        /* \"#utility.yul\":12102:12122   */\n      tag_286\n        /* \"#utility.yul\":12120:12121   */\n      dup3\n        /* \"#utility.yul\":12102:12122   */\n      tag_136\n      jump\t// in\n    tag_286:\n        /* \"#utility.yul\":12097:12122   */\n      swap2\n      pop\n        /* \"#utility.yul\":12136:12156   */\n      tag_287\n        /* \"#utility.yul\":12154:12155   */\n      dup4\n        /* \"#utility.yul\":12136:12156   */\n      tag_136\n      jump\t// in\n    tag_287:\n        /* \"#utility.yul\":12131:12156   */\n      swap3\n      pop\n        /* \"#utility.yul\":12180:12181   */\n      dup3\n        /* \"#utility.yul\":12177:12178   */\n      dup3\n        /* \"#utility.yul\":12173:12182   */\n      sub\n        /* \"#utility.yul\":12165:12182   */\n      swap1\n      pop\n        /* \"#utility.yul\":12204:12205   */\n      dup2\n        /* \"#utility.yul\":12198:12202   */\n      dup2\n        /* \"#utility.yul\":12195:12206   */\n      gt\n        /* \"#utility.yul\":12192:12229   */\n      iszero\n      tag_288\n      jumpi\n        /* \"#utility.yul\":12209:12227   */\n      tag_289\n      tag_156\n      jump\t// in\n    tag_289:\n        /* \"#utility.yul\":12192:12229   */\n    tag_288:\n        /* \"#utility.yul\":12042:12236   */\n      swap3\n      swap2\n      pop\n      pop\n      jump\t// out\n        /* \"#utility.yul\":12242:12433   */\n    tag_61:\n        /* \"#utility.yul\":12282:12285   */\n      0x00\n        /* \"#utility.yul\":12301:12321   */\n      tag_291\n        /* \"#utility.yul\":12319:12320   */\n      dup3\n        /* \"#utility.yul\":12301:12321   */\n      tag_136\n      jump\t// in\n    tag_291:\n        /* \"#utility.yul\":12296:12321   */\n      swap2\n      pop\n        /* \"#utility.yul\":12335:12355   */\n      tag_292\n        /* \"#utility.yul\":12353:12354   */\n      dup4\n        /* \"#utility.yul\":12335:12355   */\n      tag_136\n      jump\t// in\n    tag_292:\n        /* \"#utility.yul\":12330:12355   */\n      swap3\n      pop\n        /* \"#utility.yul\":12378:12379   */\n      dup3\n        /* \"#utility.yul\":12375:12376   */\n      dup3\n        /* \"#utility.yul\":12371:12380   */\n      add\n        /* \"#utility.yul\":12364:12380   */\n      swap1\n      pop\n        /* \"#utility.yul\":12399:12402   */\n      dup1\n        /* \"#utility.yul\":12396:12397   */\n      dup3\n        /* \"#utility.yul\":12393:12403   */\n      gt\n        /* \"#utility.yul\":12390:12426   */\n      iszero\n      tag_293\n      jumpi\n        /* \"#utility.yul\":12406:12424   */\n      tag_294\n      tag_156\n      jump\t// in\n    tag_294:\n        /* \"#utility.yul\":12390:12426   */\n    tag_293:\n        /* \"#utility.yul\":12242:12433   */\n      swap3\n      swap2\n      pop\n      pop\n      jump\t// out\n        /* \"#utility.yul\":12439:12619   */\n    tag_64:\n        /* \"#utility.yul\":12487:12564   */\n      0x4e487b7100000000000000000000000000000000000000000000000000000000\n        /* \"#utility.yul\":12484:12485   */\n      0x00\n        /* \"#utility.yul\":12477:12565   */\n      mstore\n        /* \"#utility.yul\":12584:12588   */\n      0x32\n        /* \"#utility.yul\":12581:12582   */\n      0x04\n        /* \"#utility.yul\":12574:12589   */\n      mstore\n        /* \"#utility.yul\":12608:12612   */\n      0x24\n        /* \"#utility.yul\":12605:12606   */\n      0x00\n        /* \"#utility.yul\":12598:12613   */\n      revert\n        /* \"#utility.yul\":12625:12774   */\n    tag_157:\n        /* \"#utility.yul\":12674:12680   */\n      0x00\n        /* \"#utility.yul\":12708:12713   */\n      dup2\n        /* \"#utility.yul\":12702:12714   */\n      sload\n        /* \"#utility.yul\":12692:12714   */\n      swap1\n      pop\n        /* \"#utility.yul\":12734:12767   */\n      tag_297\n        /* \"#utility.yul\":12760:12766   */\n      dup2\n        /* \"#utility.yul\":12734:12767   */\n      tag_44\n      jump\t// in\n    tag_297:\n        /* \"#utility.yul\":12724:12767   */\n      swap1\n      pop\n        /* \"#utility.yul\":12625:12774   */\n      swap2\n      swap1\n      pop\n      jump\t// out\n        /* \"#utility.yul\":12780:12921   */\n    tag_158:\n        /* \"#utility.yul\":12829:12833   */\n      0x00\n        /* \"#utility.yul\":12852:12855   */\n      dup2\n        /* \"#utility.yul\":12844:12855   */\n      swap1\n      pop\n        /* \"#utility.yul\":12875:12878   */\n      dup2\n        /* \"#utility.yul\":12872:12873   */\n      0x00\n        /* \"#utility.yul\":12865:12879   */\n      mstore\n        /* \"#utility.yul\":12909:12913   */\n      0x20\n        /* \"#utility.yul\":12906:12907   */\n      0x00\n        /* \"#utility.yul\":12896:12914   */\n      keccak256\n        /* \"#utility.yul\":12888:12914   */\n      swap1\n      pop\n        /* \"#utility.yul\":12780:12921   */\n      swap2\n      swap1\n      pop\n      jump\t// out\n        /* \"#utility.yul\":12927:13020   */\n    tag_159:\n        /* \"#utility.yul\":12964:12970   */\n      0x00\n        /* \"#utility.yul\":13011:13013   */\n      0x20\n        /* \"#utility.yul\":13006:13008   */\n      0x1f\n        /* \"#utility.yul\":12999:13004   */\n      dup4\n        /* \"#utility.yul\":12995:13009   */\n      add\n        /* \"#utility.yul\":12991:13014   */\n      div\n        /* \"#utility.yul\":12981:13014   */\n      swap1\n      pop\n        /* \"#utility.yul\":12927:13020   */\n      swap2\n      swap1\n      pop\n      jump\t// out\n        /* \"#utility.yul\":13026:13133   */\n    tag_160:\n        /* \"#utility.yul\":13070:13078   */\n      0x00\n        /* \"#utility.yul\":13120:13125   */\n      dup3\n        /* \"#utility.yul\":13114:13118   */\n      dup3\n        /* \"#utility.yul\":13110:13126   */\n      shl\n        /* \"#utility.yul\":13089:13126   */\n      swap1\n      pop\n        /* \"#utility.yul\":13026:13133   */\n      swap3\n      swap2\n      pop\n      pop\n      jump\t// out\n        /* \"#utility.yul\":13139:13532   */\n    tag_161:\n        /* \"#utility.yul\":13208:13214   */\n      0x00\n        /* \"#utility.yul\":13258:13259   */\n      0x08\n        /* \"#utility.yul\":13246:13256   */\n      dup4\n        /* \"#utility.yul\":13242:13260   */\n      mul\n        /* \"#utility.yul\":13281:13378   */\n      tag_302\n        /* \"#utility.yul\":13311:13377   */\n      0xffffffffffffffffffffffffffffffffffffffffffffffffffffffffffffffff\n        /* \"#utility.yul\":13300:13309   */\n      dup3\n        /* \"#utility.yul\":13281:13378   */\n      tag_160\n      jump\t// in\n    tag_302:\n        /* \"#utility.yul\":13399:13438   */\n      tag_303\n        /* \"#utility.yul\":13429:13437   */\n      dup7\n        /* \"#utility.yul\":13418:13427   */\n      dup4\n        /* \"#utility.yul\":13399:13438   */\n      tag_160\n      jump\t// in\n    tag_303:\n        /* \"#utility.yul\":13387:13438   */\n      swap6\n      pop\n        /* \"#utility.yul\":13471:13475   */\n      dup1\n        /* \"#utility.yul\":13467:13476   */\n      not\n        /* \"#utility.yul\":13460:13465   */\n      dup5\n        /* \"#utility.yul\":13456:13477   */\n      and\n        /* \"#utility.yul\":13447:13477   */\n      swap4\n      pop\n        /* \"#utility.yul\":13520:13524   */\n      dup1\n        /* \"#utility.yul\":13510:13518   */\n      dup7\n        /* \"#utility.yul\":13506:13525   */\n      and\n        /* \"#utility.yul\":13499:13504   */\n      dup5\n        /* \"#utility.yul\":13496:13526   */\n      or\n        /* \"#utility.yul\":13486:13526   */\n      swap3\n      pop\n        /* \"#utility.yul\":13215:13532   */\n      pop\n      pop\n        /* \"#utility.yul\":13139:13532   */\n      swap4\n      swap3\n      pop\n      pop\n      pop\n      jump\t// out\n        /* \"#utility.yul\":13538:13598   */\n    tag_162:\n        /* \"#utility.yul\":13566:13569   */\n      0x00\n        /* \"#utility.yul\":13587:13592   */\n      dup2\n        /* \"#utility.yul\":13580:13592   */\n      swap1\n      pop\n        /* \"#utility.yul\":13538:13598   */\n      swap2\n      swap1\n      pop\n      jump\t// out\n        /* \"#utility.yul\":13604:13746   */\n    tag_163:\n        /* \"#utility.yul\":13654:13663   */\n      0x00\n        /* \"#utility.yul\":13687:13740   */\n      tag_306\n        /* \"#utility.yul\":13705:13739   */\n      tag_307\n        /* \"#utility.yul\":13714:13738   */\n      tag_308\n        /* \"#utility.yul\":13732:13737   */\n      dup5\n        /* \"#utility.yul\":13714:13738   */\n      tag_136\n      jump\t// in\n    tag_308:\n        /* \"#utility.yul\":13705:13739   */\n      tag_162\n      jump\t// in\n    tag_307:\n        /* \"#utility.yul\":13687:13740   */\n      tag_136\n      jump\t// in\n    tag_306:\n        /* \"#utility.yul\":13674:13740   */\n      swap1\n      pop\n        /* \"#utility.yul\":13604:13746   */\n      swap2\n      swap1\n      pop\n      jump\t// out\n        /* \"#utility.yul\":13752:13827   */\n    tag_164:\n        /* \"#utility.yul\":13795:13798   */\n      0x00\n        /* \"#utility.yul\":13816:13821   */\n      dup2\n        /* \"#utility.yul\":13809:13821   */\n      swap1\n      pop\n        /* \"#utility.yul\":13752:13827   */\n      swap2\n      swap1\n      pop\n      jump\t// out\n        /* \"#utility.yul\":13833:14102   */\n    tag_165:\n        /* \"#utility.yul\":13943:13982   */\n      tag_311\n        /* \"#utility.yul\":13974:13981   */\n      dup4\n        /* \"#utility.yul\":13943:13982   */\n      tag_163\n      jump\t// in\n    tag_311:\n        /* \"#utility.yul\":14004:14095   */\n      tag_312\n        /* \"#utility.yul\":14053:14094   */\n      tag_313\n        /* \"#utility.yul\":14077:14093   */\n      dup3\n        /* \"#utility.yul\":14053:14094   */\n      tag_164\n      jump\t// in\n    tag_313:\n        /* \"#utility.yul\":14045:14051   */\n      dup5\n        /* \"#utility.yul\":14038:14042   */\n      dup5\n        /* \"#utility.yul\":14032:14043   */\n      sload\n        /* \"#utility.yul\":14004:14095   */\n      tag_161\n      jump\t// in\n    tag_312:\n        /* \"#utility.yul\":13998:14002   */\n      dup3\n        /* \"#utility.yul\":13991:14096   */\n      sstore\n        /* \"#utility.yul\":13909:14102   */\n      pop\n        /* \"#utility.yul\":13833:14102   */\n      pop\n      pop\n      pop\n      jump\t// out\n        /* \"#utility.yul\":14108:14181   */\n    tag_166:\n        /* \"#utility.yul\":14153:14156   */\n      0x00\n        /* \"#utility.yul\":14108:14181   */\n      swap1\n      jump\t// out\n        /* \"#utility.yul\":14187:14376   */\n    tag_167:\n        /* \"#utility.yul\":14264:14296   */\n      tag_316\n      tag_166\n      jump\t// in\n    tag_316:\n        /* \"#utility.yul\":14305:14370   */\n      tag_317\n        /* \"#utility.yul\":14363:14369   */\n      dup2\n        /* \"#utility.yul\":14355:14361   */\n      dup5\n        /* \"#utility.yul\":14349:14353   */\n      dup5\n        /* \"#utility.yul\":14305:14370   */\n      tag_165\n      jump\t// in\n    tag_317:\n        /* \"#utility.yul\":14240:14376   */\n      pop\n        /* \"#utility.yul\":14187:14376   */\n      pop\n      pop\n      jump\t// out\n        /* \"#utility.yul\":14382:14568   */\n    tag_168:\n        /* \"#utility.yul\":14442:14562   */\n    tag_319:\n        /* \"#utility.yul\":14459:14462   */\n      dup2\n        /* \"#utility.yul\":14452:14457   */\n      dup2\n        /* \"#utility.yul\":14449:14463   */\n      lt\n        /* \"#utility.yul\":14442:14562   */\n      iszero\n      tag_321\n      jumpi\n        /* \"#utility.yul\":14513:14552   */\n      tag_322\n        /* \"#utility.yul\":14550:14551   */\n      0x00\n        /* \"#utility.yul\":14543:14548   */\n      dup3\n        /* \"#utility.yul\":14513:14552   */\n      tag_167\n      jump\t// in\n    tag_322:\n        /* \"#utility.yul\":14486:14487   */\n      0x01\n        /* \"#utility.yul\":14479:14484   */\n      dup2\n        /* \"#utility.yul\":14475:14488   */\n      add\n        /* \"#utility.yul\":14466:14488   */\n      swap1\n      pop\n        /* \"#utility.yul\":14442:14562   */\n      jump(tag_319)\n    tag_321:\n        /* \"#utility.yul\":14382:14568   */\n      pop\n      pop\n      jump\t// out\n        /* \"#utility.yul\":14574:15117   */\n    tag_169:\n        /* \"#utility.yul\":14675:14677   */\n      0x1f\n        /* \"#utility.yul\":14670:14673   */\n      dup3\n        /* \"#utility.yul\":14667:14678   */\n      gt\n        /* \"#utility.yul\":14664:15110   */\n      iszero\n      tag_324\n      jumpi\n        /* \"#utility.yul\":14709:14747   */\n      tag_325\n        /* \"#utility.yul\":14741:14746   */\n      dup2\n        /* \"#utility.yul\":14709:14747   */\n      tag_158\n      jump\t// in\n    tag_325:\n        /* \"#utility.yul\":14793:14822   */\n      tag_326\n        /* \"#utility.yul\":14811:14821   */\n      dup5\n        /* \"#utility.yul\":14793:14822   */\n      tag_159\n      jump\t// in\n    tag_326:\n        /* \"#utility.yul\":14783:14791   */\n      dup2\n        /* \"#utility.yul\":14779:14823   */\n      add\n        /* \"#utility.yul\":14976:14978   */\n      0x20\n        /* \"#utility.yul\":14964:14974   */\n      dup6\n        /* \"#utility.yul\":14961:14979   */\n      lt\n        /* \"#utility.yul\":14958:15007   */\n      iszero\n      tag_327\n      jumpi\n        /* \"#utility.yul\":14997:15005   */\n      dup2\n        /* \"#utility.yul\":14982:15005   */\n      swap1\n      pop\n        /* \"#utility.yul\":14958:15007   */\n    tag_327:\n        /* \"#utility.yul\":15020:15100   */\n      tag_328\n        /* \"#utility.yul\":15076:15098   */\n      tag_329\n        /* \"#utility.yul\":15094:15097   */\n      dup6\n        /* \"#utility.yul\":15076:15098   */\n      tag_159\n      jump\t// in\n    tag_329:\n        /* \"#utility.yul\":15066:15074   */\n      dup4\n        /* \"#utility.yul\":15062:15099   */\n      add\n        /* \"#utility.yul\":15049:15060   */\n      dup3\n        /* \"#utility.yul\":15020:15100   */\n      tag_168\n      jump\t// in\n    tag_328:\n        /* \"#utility.yul\":14679:15110   */\n      pop\n      pop\n        /* \"#utility.yul\":14664:15110   */\n    tag_324:\n        /* \"#utility.yul\":14574:15117   */\n      pop\n      pop\n      pop\n      jump\t// out\n        /* \"#utility.yul\":15123:15240   */\n    tag_170:\n        /* \"#utility.yul\":15177:15185   */\n      0x00\n        /* \"#utility.yul\":15227:15232   */\n      dup3\n        /* \"#utility.yul\":15221:15225   */\n      dup3\n        /* \"#utility.yul\":15217:15233   */\n      shr\n        /* \"#utility.yul\":15196:15233   */\n      swap1\n      pop\n        /* \"#utility.yul\":15123:15240   */\n      swap3\n      swap2\n      pop\n      pop\n      jump\t// out\n        /* \"#utility.yul\":15246:15415   */\n    tag_171:\n        /* \"#utility.yul\":15290:15296   */\n      0x00\n        /* \"#utility.yul\":15323:15374   */\n      tag_332\n        /* \"#utility.yul\":15371:15372   */\n      0x00\n        /* \"#utility.yul\":15367:15373   */\n      not\n        /* \"#utility.yul\":15359:15364   */\n      dup5\n        /* \"#utility.yul\":15356:15357   */\n      0x08\n        /* \"#utility.yul\":15352:15365   */\n      mul\n        /* \"#utility.yul\":15323:15374   */\n      tag_170\n      jump\t// in\n    tag_332:\n        /* \"#utility.yul\":15319:15375   */\n      not\n        /* \"#utility.yul\":15404:15408   */\n      dup1\n        /* \"#utility.yul\":15398:15402   */\n      dup4\n        /* \"#utility.yul\":15394:15409   */\n      and\n        /* \"#utility.yul\":15384:15409   */\n      swap2\n      pop\n        /* \"#utility.yul\":15297:15415   */\n      pop\n        /* \"#utility.yul\":15246:15415   */\n      swap3\n      swap2\n      pop\n      pop\n      jump\t// out\n        /* \"#utility.yul\":15420:15715   */\n    tag_172:\n        /* \"#utility.yul\":15496:15500   */\n      0x00\n        /* \"#utility.yul\":15642:15671   */\n      tag_334\n        /* \"#utility.yul\":15667:15670   */\n      dup4\n        /* \"#utility.yul\":15661:15665   */\n      dup4\n        /* \"#utility.yul\":15642:15671   */\n      tag_171\n      jump\t// in\n    tag_334:\n        /* \"#utility.yul\":15634:15671   */\n      swap2\n      pop\n        /* \"#utility.yul\":15704:15707   */\n      dup3\n        /* \"#utility.yul\":15701:15702   */\n      0x02\n        /* \"#utility.yul\":15697:15708   */\n      mul\n        /* \"#utility.yul\":15691:15695   */\n      dup3\n        /* \"#utility.yul\":15688:15709   */\n      or\n        /* \"#utility.yul\":15680:15709   */\n      swap1\n      pop\n        /* \"#utility.yul\":15420:15715   */\n      swap3\n      swap2\n      pop\n      pop\n      jump\t// out\n        /* \"#utility.yul\":15720:17171   */\n    tag_70:\n        /* \"#utility.yul\":15831:15834   */\n      dup2\n        /* \"#utility.yul\":15825:15829   */\n      dup2\n        /* \"#utility.yul\":15822:15835   */\n      sub\n        /* \"#utility.yul\":15819:15845   */\n      tag_336\n      jumpi\n        /* \"#utility.yul\":15838:15843   */\n      pop\n      pop\n      jump(tag_335)\n        /* \"#utility.yul\":15819:15845   */\n    tag_336:\n        /* \"#utility.yul\":15869:15903   */\n      tag_337\n        /* \"#utility.yul\":15899:15902   */\n      dup3\n        /* \"#utility.yul\":15869:15903   */\n      tag_157\n      jump\t// in\n    tag_337:\n        /* \"#utility.yul\":15968:15986   */\n      0xffffffffffffffff\n        /* \"#utility.yul\":15960:15966   */\n      dup2\n        /* \"#utility.yul\":15957:15987   */\n      gt\n        /* \"#utility.yul\":15954:16010   */\n      iszero\n      tag_338\n      jumpi\n        /* \"#utility.yul\":15990:16008   */\n      tag_339\n      tag_145\n      jump\t// in\n    tag_339:\n        /* \"#utility.yul\":15954:16010   */\n    tag_338:\n        /* \"#utility.yul\":16034:16072   */\n      tag_340\n        /* \"#utility.yul\":16066:16070   */\n      dup3\n        /* \"#utility.yul\":16060:16071   */\n      sload\n        /* \"#utility.yul\":16034:16072   */\n      tag_44\n      jump\t// in\n    tag_340:\n        /* \"#utility.yul\":16119:16186   */\n      tag_341\n        /* \"#utility.yul\":16179:16185   */\n      dup3\n        /* \"#utility.yul\":16171:16177   */\n      dup3\n        /* \"#utility.yul\":16165:16169   */\n      dup6\n        /* \"#utility.yul\":16119:16186   */\n      tag_169\n      jump\t// in\n    tag_341:\n        /* \"#utility.yul\":16213:16214   */\n      0x00\n        /* \"#utility.yul\":16242:16244   */\n      0x1f\n        /* \"#utility.yul\":16234:16240   */\n      dup4\n        /* \"#utility.yul\":16231:16245   */\n      gt\n        /* \"#utility.yul\":16259:16260   */\n      0x01\n        /* \"#utility.yul\":16254:16926   */\n      dup2\n      eq\n      tag_343\n      jumpi\n        /* \"#utility.yul\":16970:16971   */\n      0x00\n        /* \"#utility.yul\":16987:16993   */\n      dup5\n        /* \"#utility.yul\":16984:17061   */\n      iszero\n      tag_344\n      jumpi\n        /* \"#utility.yul\":17036:17045   */\n      dup3\n        /* \"#utility.yul\":17031:17034   */\n      dup8\n        /* \"#utility.yul\":17027:17046   */\n      add\n        /* \"#utility.yul\":17021:17047   */\n      sload\n        /* \"#utility.yul\":17012:17047   */\n      swap1\n      pop\n        /* \"#utility.yul\":16984:17061   */\n    tag_344:\n        /* \"#utility.yul\":17087:17154   */\n      tag_345\n        /* \"#utility.yul\":17147:17153   */\n      dup6\n        /* \"#utility.yul\":17140:17145   */\n      dup3\n        /* \"#utility.yul\":17087:17154   */\n      tag_172\n      jump\t// in\n    tag_345:\n        /* \"#utility.yul\":17081:17085   */\n      dup7\n        /* \"#utility.yul\":17074:17155   */\n      sstore\n        /* \"#utility.yul\":16943:17165   */\n      pop\n        /* \"#utility.yul\":16224:17165   */\n      jump(tag_342)\n        /* \"#utility.yul\":16254:16926   */\n    tag_343:\n        /* \"#utility.yul\":16306:16310   */\n      0x1f\n        /* \"#utility.yul\":16302:16311   */\n      not\n        /* \"#utility.yul\":16294:16300   */\n      dup5\n        /* \"#utility.yul\":16290:16312   */\n      and\n        /* \"#utility.yul\":16332:16368   */\n      tag_346\n        /* \"#utility.yul\":16364:16367   */\n      dup8\n        /* \"#utility.yul\":16332:16368   */\n      tag_158\n      jump\t// in\n    tag_346:\n        /* \"#utility.yul\":16325:16368   */\n      swap7\n      pop\n        /* \"#utility.yul\":16395:16432   */\n      tag_347\n        /* \"#utility.yul\":16427:16431   */\n      dup7\n        /* \"#utility.yul\":16395:16432   */\n      tag_158\n      jump\t// in\n    tag_347:\n        /* \"#utility.yul\":16454:16455   */\n      0x00\n        /* \"#utility.yul\":16468:16675   */\n    tag_348:\n        /* \"#utility.yul\":16482:16489   */\n      dup3\n        /* \"#utility.yul\":16479:16480   */\n      dup2\n        /* \"#utility.yul\":16476:16490   */\n      lt\n        /* \"#utility.yul\":16468:16675   */\n      iszero\n      tag_350\n      jumpi\n        /* \"#utility.yul\":16561:16570   */\n      dup5\n        /* \"#utility.yul\":16556:16559   */\n      dup10\n        /* \"#utility.yul\":16552:16571   */\n      add\n        /* \"#utility.yul\":16546:16572   */\n      sload\n        /* \"#utility.yul\":16538:16544   */\n      dup3\n        /* \"#utility.yul\":16531:16573   */\n      sstore\n        /* \"#utility.yul\":16612:16613   */\n      0x01\n        /* \"#utility.yul\":16604:16610   */\n      dup3\n        /* \"#utility.yul\":16600:16614   */\n      add\n        /* \"#utility.yul\":16590:16614   */\n      swap2\n      pop\n        /* \"#utility.yul\":16659:16660   */\n      0x01\n        /* \"#utility.yul\":16648:16657   */\n      dup6\n        /* \"#utility.yul\":16644:16661   */\n      add\n        /* \"#utility.yul\":16631:16661   */\n      swap5\n      pop\n        /* \"#utility.yul\":16505:16509   */\n      0x20\n        /* \"#utility.yul\":16502:16503   */\n      dup2\n        /* \"#utility.yul\":16498:16510   */\n      add\n        /* \"#utility.yul\":16493:16510   */\n      swap1\n      pop\n        /* \"#utility.yul\":16468:16675   */\n      jump(tag_348)\n    tag_350:\n        /* \"#utility.yul\":16703:16709   */\n      dup7\n        /* \"#utility.yul\":16694:16701   */\n      dup4\n        /* \"#utility.yul\":16691:16710   */\n      lt\n        /* \"#utility.yul\":16688:16867   */\n      iszero\n      tag_351\n      jumpi\n        /* \"#utility.yul\":16761:16770   */\n      dup5\n        /* \"#utility.yul\":16756:16759   */\n      dup10\n        /* \"#utility.yul\":16752:16771   */\n      add\n        /* \"#utility.yul\":16746:16772   */\n      sload\n        /* \"#utility.yul\":16804:16852   */\n      tag_352\n        /* \"#utility.yul\":16846:16850   */\n      0x1f\n        /* \"#utility.yul\":16838:16844   */\n      dup10\n        /* \"#utility.yul\":16834:16851   */\n      and\n        /* \"#utility.yul\":16823:16832   */\n      dup3\n        /* \"#utility.yul\":16804:16852   */\n      tag_171\n      jump\t// in\n    tag_352:\n        /* \"#utility.yul\":16796:16802   */\n      dup4\n        /* \"#utility.yul\":16789:16853   */\n      sstore\n        /* \"#utility.yul\":16711:16867   */\n      pop\n        /* \"#utility.yul\":16688:16867   */\n    tag_351:\n        /* \"#utility.yul\":16913:16914   */\n      0x01\n        /* \"#utility.yul\":16909:16910   */\n      0x02\n        /* \"#utility.yul\":16901:16907   */\n      dup9\n        /* \"#utility.yul\":16897:16911   */\n      mul\n        /* \"#utility.yul\":16893:16915   */\n      add\n        /* \"#utility.yul\":16887:16891   */\n      dup9\n        /* \"#utility.yul\":16880:16916   */\n      sstore\n        /* \"#utility.yul\":16261:16926   */\n      pop\n      pop\n      pop\n        /* \"#utility.yul\":16224:17165   */\n    tag_342:\n      pop\n        /* \"#utility.yul\":15809:17171   */\n      pop\n      pop\n      pop\n        /* \"#utility.yul\":15720:17171   */\n      pop\n      pop\n    tag_335:\n      jump\t// out\n        /* \"#utility.yul\":17177:17410   */\n    tag_72:\n        /* \"#utility.yul\":17216:17219   */\n      0x00\n        /* \"#utility.yul\":17239:17263   */\n      tag_354\n        /* \"#utility.yul\":17257:17262   */\n      dup3\n        /* \"#utility.yul\":17239:17263   */\n      tag_136\n      jump\t// in\n    tag_354:\n        /* \"#utility.yul\":17230:17263   */\n      swap2\n      pop\n        /* \"#utility.yul\":17285:17351   */\n      0xffffffffffffffffffffffffffffffffffffffffffffffffffffffffffffffff\n        /* \"#utility.yul\":17278:17283   */\n      dup3\n        /* \"#utility.yul\":17275:17352   */\n      sub\n        /* \"#utility.yul\":17272:17375   */\n      tag_355\n      jumpi\n        /* \"#utility.yul\":17355:17373   */\n      tag_356\n      tag_156\n      jump\t// in\n    tag_356:\n        /* \"#utility.yul\":17272:17375   */\n    tag_355:\n        /* \"#utility.yul\":17402:17403   */\n      0x01\n        /* \"#utility.yul\":17395:17400   */\n      dup3\n        /* \"#utility.yul\":17391:17404   */\n      add\n        /* \"#utility.yul\":17384:17404   */\n      swap1\n      pop\n        /* \"#utility.yul\":17177:17410   */\n      swap2\n      swap1\n      pop\n      jump\t// out\n        /* \"#utility.yul\":17416:17596   */\n    tag_75:\n        /* \"#utility.yul\":17464:17541   */\n      0x4e487b7100000000000000000000000000000000000000000000000000000000\n        /* \"#utility.yul\":17461:17462   */\n      0x00\n        /* \"#utility.yul\":17454:17542   */\n      mstore\n        /* \"#utility.yul\":17561:17565   */\n      0x31\n        /* \"#utility.yul\":17558:17559   */\n      0x04\n        /* \"#utility.yul\":17551:17566   */\n      mstore\n        /* \"#utility.yul\":17585:17589   */\n      0x24\n        /* \"#utility.yul\":17582:17583   */\n      0x00\n        /* \"#utility.yul\":17575:17590   */\n      revert\n        /* \"#utility.yul\":17602:18997   */\n    tag_104:\n        /* \"#utility.yul\":17719:17756   */\n      tag_359\n        /* \"#utility.yul\":17752:17755   */\n      dup3\n        /* \"#utility.yul\":17719:17756   */\n      tag_122\n      jump\t// in\n    tag_359:\n        /* \"#utility.yul\":17821:17839   */\n      0xffffffffffffffff\n        /* \"#utility.yul\":17813:17819   */\n      dup2\n        /* \"#utility.yul\":17810:17840   */\n      gt\n        /* \"#utility.yul\":17807:17863   */\n      iszero\n      tag_360\n      jumpi\n        /* \"#utility.yul\":17843:17861   */\n      tag_361\n      tag_145\n      jump\t// in\n    tag_361:\n        /* \"#utility.yul\":17807:17863   */\n    tag_360:\n        /* \"#utility.yul\":17887:17925   */\n      tag_362\n        /* \"#utility.yul\":17919:17923   */\n      dup3\n        /* \"#utility.yul\":17913:17924   */\n      sload\n        /* \"#utility.yul\":17887:17925   */\n      tag_44\n      jump\t// in\n    tag_362:\n        /* \"#utility.yul\":17972:18039   */\n      tag_363\n        /* \"#utility.yul\":18032:18038   */\n      dup3\n        /* \"#utility.yul\":18024:18030   */\n      dup3\n        /* \"#utility.yul\":18018:18022   */\n      dup6\n        /* \"#utility.yul\":17972:18039   */\n      tag_169\n      jump\t// in\n    tag_363:\n        /* \"#utility.yul\":18066:18067   */\n      0x00\n        /* \"#utility.yul\":18090:18094   */\n      0x20\n        /* \"#utility.yul\":18077:18094   */\n      swap1\n      pop\n        /* \"#utility.yul\":18122:18124   */\n      0x1f\n        /* \"#utility.yul\":18114:18120   */\n      dup4\n        /* \"#utility.yul\":18111:18125   */\n      gt\n        /* \"#utility.yul\":18139:18140   */\n      0x01\n        /* \"#utility.yul\":18134:18752   */\n      dup2\n      eq\n      tag_365\n      jumpi\n        /* \"#utility.yul\":18796:18797   */\n      0x00\n        /* \"#utility.yul\":18813:18819   */\n      dup5\n        /* \"#utility.yul\":18810:18887   */\n      iszero\n      tag_366\n      jumpi\n        /* \"#utility.yul\":18862:18871   */\n      dup3\n        /* \"#utility.yul\":18857:18860   */\n      dup8\n        /* \"#utility.yul\":18853:18872   */\n      add\n        /* \"#utility.yul\":18847:18873   */\n      mload\n        /* \"#utility.yul\":18838:18873   */\n      swap1\n      pop\n        /* \"#utility.yul\":18810:18887   */\n    tag_366:\n        /* \"#utility.yul\":18913:18980   */\n      tag_367\n        /* \"#utility.yul\":18973:18979   */\n      dup6\n        /* \"#utility.yul\":18966:18971   */\n      dup3\n        /* \"#utility.yul\":18913:18980   */\n      tag_172\n      jump\t// in\n    tag_367:\n        /* \"#utility.yul\":18907:18911   */\n      dup7\n        /* \"#utility.yul\":18900:18981   */\n      sstore\n        /* \"#utility.yul\":18769:18991   */\n      pop\n        /* \"#utility.yul\":18104:18991   */\n      jump(tag_364)\n        /* \"#utility.yul\":18134:18752   */\n    tag_365:\n        /* \"#utility.yul\":18186:18190   */\n      0x1f\n        /* \"#utility.yul\":18182:18191   */\n      not\n        /* \"#utility.yul\":18174:18180   */\n      dup5\n        /* \"#utility.yul\":18170:18192   */\n      and\n        /* \"#utility.yul\":18220:18257   */\n      tag_368\n        /* \"#utility.yul\":18252:18256   */\n      dup7\n        /* \"#utility.yul\":18220:18257   */\n      tag_158\n      jump\t// in\n    tag_368:\n        /* \"#utility.yul\":18279:18280   */\n      0x00\n        /* \"#utility.yul\":18293:18501   */\n    tag_369:\n        /* \"#utility.yul\":18307:18314   */\n      dup3\n        /* \"#utility.yul\":18304:18305   */\n      dup2\n        /* \"#utility.yul\":18301:18315   */\n      lt\n        /* \"#utility.yul\":18293:18501   */\n      iszero\n      tag_371\n      jumpi\n        /* \"#utility.yul\":18386:18395   */\n      dup5\n        /* \"#utility.yul\":18381:18384   */\n      dup10\n        /* \"#utility.yul\":18377:18396   */\n      add\n        /* \"#utility.yul\":18371:18397   */\n      mload\n        /* \"#utility.yul\":18363:18369   */\n      dup3\n        /* \"#utility.yul\":18356:18398   */\n      sstore\n        /* \"#utility.yul\":18437:18438   */\n      0x01\n        /* \"#utility.yul\":18429:18435   */\n      dup3\n        /* \"#utility.yul\":18425:18439   */\n      add\n        /* \"#utility.yul\":18415:18439   */\n      swap2\n      pop\n        /* \"#utility.yul\":18484:18486   */\n      0x20\n        /* \"#utility.yul\":18473:18482   */\n      dup6\n        /* \"#utility.yul\":18469:18487   */\n      add\n        /* \"#utility.yul\":18456:18487   */\n      swap5\n      pop\n        /* \"#utility.yul\":18330:18334   */\n      0x20\n        /* \"#utility.yul\":18327:18328   */\n      dup2\n        /* \"#utility.yul\":18323:18335   */\n      add\n        /* \"#utility.yul\":18318:18335   */\n      swap1\n      pop\n        /* \"#utility.yul\":18293:18501   */\n      jump(tag_369)\n    tag_371:\n        /* \"#utility.yul\":18529:18535   */\n      dup7\n        /* \"#utility.yul\":18520:18527   */\n      dup4\n        /* \"#utility.yul\":18517:18536   */\n      lt\n        /* \"#utility.yul\":18514:18693   */\n      iszero\n      tag_372\n      jumpi\n        /* \"#utility.yul\":18587:18596   */\n      dup5\n        /* \"#utility.yul\":18582:18585   */\n      dup10\n        /* \"#utility.yul\":18578:18597   */\n      add\n        /* \"#utility.yul\":18572:18598   */\n      mload\n        /* \"#utility.yul\":18630:18678   */\n      tag_373\n        /* \"#utility.yul\":18672:18676   */\n      0x1f\n        /* \"#utility.yul\":18664:18670   */\n      dup10\n        /* \"#utility.yul\":18660:18677   */\n      and\n        /* \"#utility.yul\":18649:18658   */\n      dup3\n        /* \"#utility.yul\":18630:18678   */\n      tag_171\n      jump\t// in\n    tag_373:\n        /* \"#utility.yul\":18622:18628   */\n      dup4\n        /* \"#utility.yul\":18615:18679   */\n      sstore\n        /* \"#utility.yul\":18537:18693   */\n      pop\n        /* \"#utility.yul\":18514:18693   */\n    tag_372:\n        /* \"#utility.yul\":18739:18740   */\n      0x01\n        /* \"#utility.yul\":18735:18736   */\n      0x02\n        /* \"#utility.yul\":18727:18733   */\n      dup9\n        /* \"#utility.yul\":18723:18737   */\n      mul\n        /* \"#utility.yul\":18719:18741   */\n      add\n        /* \"#utility.yul\":18713:18717   */\n      dup9\n        /* \"#utility.yul\":18706:18742   */\n      sstore\n        /* \"#utility.yul\":18141:18752   */\n      pop\n      pop\n      pop\n        /* \"#utility.yul\":18104:18991   */\n    tag_364:\n      pop\n        /* \"#utility.yul\":17694:18997   */\n      pop\n      pop\n      pop\n        /* \"#utility.yul\":17602:18997   */\n      pop\n      pop\n      jump\t// out\n\n    auxdata: 0xa2646970667358221220b4b46ffbf2f6d12fade2d56fc1121a0a1141f54e9470be613ffa019e07801ff264736f6c63430008120033\n}\n",
				"bytecode": {
					"linkReferences": {},
					"object": "608060405234801561001057600080fd5b50336000806101000a81548173ffffffffffffffffffffffffffffffffffffffff021916908373ffffffffffffffffffffffffffffffffffffffff16021790555061127b806100606000396000f3fe608060405234801561001057600080fd5b506004361061007d5760003560e01c80638da5cb5b1161005b5780638da5cb5b146100d85780639507d39a146100f6578063b0c8f9dc14610126578063f745630f146101425761007d565b80630f560cd7146100825780634cc82215146100a0578063751ef753146100bc575b600080fd5b61008a61015e565b6040516100979190610981565b60405180910390f35b6100ba60048036038101906100b591906109ed565b61026a565b005b6100d660048036038101906100d191906109ed565b610421565b005b6100e06104ec565b6040516100ed9190610a5b565b60405180910390f35b610110600480360381019061010b91906109ed565b610510565b60405161011d9190610ab3565b60405180910390f35b610140600480360381019061013b9190610c0a565b6105f9565b005b61015c60048036038101906101579190610c53565b6106cf565b005b60606001805480602002602001604051908101604052809291908181526020016000905b8282101561026157838290600052602060002090600202016040518060400160405290816000820180546101b590610cde565b80601f01602080910402602001604051908101604052809291908181526020018280546101e190610cde565b801561022e5780601f106102035761010080835404028352916020019161022e565b820191906000526020600020905b81548152906001019060200180831161021157829003601f168201915b505050505081526020016001820160009054906101000a900460ff16151515158152505081526020019060010190610182565b50505050905090565b3373ffffffffffffffffffffffffffffffffffffffff1660008054906101000a900473ffffffffffffffffffffffffffffffffffffffff1673ffffffffffffffffffffffffffffffffffffffff16146102c257600080fd5b8060018054905011610309576040517f08c379a000000000000000000000000000000000000000000000000000000000815260040161030090610d6c565b60405180910390fd5b60008190505b600180805490506103209190610dbb565b8110156103ce57600180826103359190610def565b8154811061034657610345610e23565b5b90600052602060002090600202016001828154811061036857610367610e23565b5b90600052602060002090600202016000820181600001908161038a9190611014565b506001820160009054906101000a900460ff168160010160006101000a81548160ff02191690831515021790555090505080806103c6906110fc565b91505061030f565b5060018054806103e1576103e0611144565b5b600190038181906000526020600020906002020160008082016000610406919061075e565b6001820160006101000a81549060ff02191690555050905550565b3373ffffffffffffffffffffffffffffffffffffffff1660008054906101000a900473ffffffffffffffffffffffffffffffffffffffff1673ffffffffffffffffffffffffffffffffffffffff161461047957600080fd5b6001818154811061048d5761048c610e23565b5b906000526020600020906002020160010160009054906101000a900460ff1615600182815481106104c1576104c0610e23565b5b906000526020600020906002020160010160006101000a81548160ff02191690831515021790555050565b60008054906101000a900473ffffffffffffffffffffffffffffffffffffffff1681565b61051861079e565b6001828154811061052c5761052b610e23565b5b906000526020600020906002020160405180604001604052908160008201805461055590610cde565b80601f016020809104026020016040519081016040528092919081815260200182805461058190610cde565b80156105ce5780601f106105a3576101008083540402835291602001916105ce565b820191906000526020600020905b8154815290600101906020018083116105b157829003601f168201915b505050505081526020016001820160009054906101000a900460ff1615151515815250509050919050565b3373ffffffffffffffffffffffffffffffffffffffff1660008054906101000a900473ffffffffffffffffffffffffffffffffffffffff1673ffffffffffffffffffffffffffffffffffffffff161461065157600080fd5b6001604051806040016040528083815260200160001515815250908060018154018082558091505060019003906000526020600020906002020160009091909190915060008201518160000190816106a99190611173565b5060208201518160010160006101000a81548160ff021916908315150217905550505050565b3373ffffffffffffffffffffffffffffffffffffffff1660008054906101000a900473ffffffffffffffffffffffffffffffffffffffff1673ffffffffffffffffffffffffffffffffffffffff161461072757600080fd5b806001838154811061073c5761073b610e23565b5b906000526020600020906002020160000190816107599190611173565b505050565b50805461076a90610cde565b6000825580601f1061077c575061079b565b601f01602090049060005260206000209081019061079a91906107ba565b5b50565b6040518060400160405280606081526020016000151581525090565b5b808211156107d35760008160009055506001016107bb565b5090565b600081519050919050565b600082825260208201905092915050565b6000819050602082019050919050565b600081519050919050565b600082825260208201905092915050565b60005b8381101561083d578082015181840152602081019050610822565b60008484015250505050565b6000601f19601f8301169050919050565b600061086582610803565b61086f818561080e565b935061087f81856020860161081f565b61088881610849565b840191505092915050565b60008115159050919050565b6108a881610893565b82525050565b600060408301600083015184820360008601526108cb828261085a565b91505060208301516108e0602086018261089f565b508091505092915050565b60006108f783836108ae565b905092915050565b6000602082019050919050565b6000610917826107d7565b61092181856107e2565b935083602082028501610933856107f3565b8060005b8581101561096f578484038952815161095085826108eb565b945061095b836108ff565b925060208a01995050600181019050610937565b50829750879550505050505092915050565b6000602082019050818103600083015261099b818461090c565b905092915050565b6000604051905090565b600080fd5b600080fd5b6000819050919050565b6109ca816109b7565b81146109d557600080fd5b50565b6000813590506109e7816109c1565b92915050565b600060208284031215610a0357610a026109ad565b5b6000610a11848285016109d8565b91505092915050565b600073ffffffffffffffffffffffffffffffffffffffff82169050919050565b6000610a4582610a1a565b9050919050565b610a5581610a3a565b82525050565b6000602082019050610a706000830184610a4c565b92915050565b60006040830160008301518482036000860152610a93828261085a565b9150506020830151610aa8602086018261089f565b508091505092915050565b60006020820190508181036000830152610acd8184610a76565b905092915050565b600080fd5b600080fd5b7f4e487b7100000000000000000000000000000000000000000000000000000000600052604160045260246000fd5b610b1782610849565b810181811067ffffffffffffffff82111715610b3657610b35610adf565b5b80604052505050565b6000610b496109a3565b9050610b558282610b0e565b919050565b600067ffffffffffffffff821115610b7557610b74610adf565b5b610b7e82610849565b9050602081019050919050565b82818337600083830152505050565b6000610bad610ba884610b5a565b610b3f565b905082815260208101848484011115610bc957610bc8610ada565b5b610bd4848285610b8b565b509392505050565b600082601f830112610bf157610bf0610ad5565b5b8135610c01848260208601610b9a565b91505092915050565b600060208284031215610c2057610c1f6109ad565b5b600082013567ffffffffffffffff811115610c3e57610c3d6109b2565b5b610c4a84828501610bdc565b91505092915050565b60008060408385031215610c6a57610c696109ad565b5b6000610c78858286016109d8565b925050602083013567ffffffffffffffff811115610c9957610c986109b2565b5b610ca585828601610bdc565b9150509250929050565b7f4e487b7100000000000000000000000000000000000000000000000000000000600052602260045260246000fd5b60006002820490506001821680610cf657607f821691505b602082108103610d0957610d08610caf565b5b50919050565b600082825260208201905092915050565b7f4f7574206f6620626f756e647300000000000000000000000000000000000000600082015250565b6000610d56600d83610d0f565b9150610d6182610d20565b602082019050919050565b60006020820190508181036000830152610d8581610d49565b9050919050565b7f4e487b7100000000000000000000000000000000000000000000000000000000600052601160045260246000fd5b6000610dc6826109b7565b9150610dd1836109b7565b9250828203905081811115610de957610de8610d8c565b5b92915050565b6000610dfa826109b7565b9150610e05836109b7565b9250828201905080821115610e1d57610e1c610d8c565b5b92915050565b7f4e487b7100000000000000000000000000000000000000000000000000000000600052603260045260246000fd5b600081549050610e6181610cde565b9050919050565b60008190508160005260206000209050919050565b60006020601f8301049050919050565b600082821b905092915050565b600060088302610eca7fffffffffffffffffffffffffffffffffffffffffffffffffffffffffffffffff82610e8d565b610ed48683610e8d565b95508019841693508086168417925050509392505050565b6000819050919050565b6000610f11610f0c610f07846109b7565b610eec565b6109b7565b9050919050565b6000819050919050565b610f2b83610ef6565b610f3f610f3782610f18565b848454610e9a565b825550505050565b600090565b610f54610f47565b610f5f818484610f22565b505050565b5b81811015610f8357610f78600082610f4c565b600181019050610f65565b5050565b601f821115610fc857610f9981610e68565b610fa284610e7d565b81016020851015610fb1578190505b610fc5610fbd85610e7d565b830182610f64565b50505b505050565b600082821c905092915050565b6000610feb60001984600802610fcd565b1980831691505092915050565b60006110048383610fda565b9150826002028217905092915050565b8181036110225750506110fa565b61102b82610e52565b67ffffffffffffffff81111561104457611043610adf565b5b61104e8254610cde565b611059828285610f87565b6000601f8311600181146110885760008415611076578287015490505b6110808582610ff8565b8655506110f3565b601f19841661109687610e68565b96506110a186610e68565b60005b828110156110c9578489015482556001820191506001850194506020810190506110a4565b868310156110e657848901546110e2601f891682610fda565b8355505b6001600288020188555050505b5050505050505b565b6000611107826109b7565b91507fffffffffffffffffffffffffffffffffffffffffffffffffffffffffffffffff820361113957611138610d8c565b5b600182019050919050565b7f4e487b7100000000000000000000000000000000000000000000000000000000600052603160045260246000fd5b61117c82610803565b67ffffffffffffffff81111561119557611194610adf565b5b61119f8254610cde565b6111aa828285610f87565b600060209050601f8311600181146111dd57600084156111cb578287015190505b6111d58582610ff8565b86555061123d565b601f1984166111eb86610e68565b60005b82811015611213578489015182556001820191506020850194506020810190506111ee565b86831015611230578489015161122c601f891682610fda565b8355505b6001600288020188555050505b50505050505056fea2646970667358221220b4b46ffbf2f6d12fade2d56fc1121a0a1141f54e9470be613ffa019e07801ff264736f6c63430008120033",
					"opcodes": "PUSH1 0x80 PUSH1 0x40 MSTORE CALLVALUE DUP1 ISZERO PUSH2 0x10 JUMPI PUSH1 0x0 DUP1 REVERT JUMPDEST POP CALLER PUSH1 0x0 DUP1 PUSH2 0x100 EXP DUP2 SLOAD DUP2 PUSH20 0xFFFFFFFFFFFFFFFFFFFFFFFFFFFFFFFFFFFFFFFF MUL NOT AND SWAP1 DUP4 PUSH20 0xFFFFFFFFFFFFFFFFFFFFFFFFFFFFFFFFFFFFFFFF AND MUL OR SWAP1 SSTORE POP PUSH2 0x127B DUP1 PUSH2 0x60 PUSH1 0x0 CODECOPY PUSH1 0x0 RETURN INVALID PUSH1 0x80 PUSH1 0x40 MSTORE CALLVALUE DUP1 ISZERO PUSH2 0x10 JUMPI PUSH1 0x0 DUP1 REVERT JUMPDEST POP PUSH1 0x4 CALLDATASIZE LT PUSH2 0x7D JUMPI PUSH1 0x0 CALLDATALOAD PUSH1 0xE0 SHR DUP1 PUSH4 0x8DA5CB5B GT PUSH2 0x5B JUMPI DUP1 PUSH4 0x8DA5CB5B EQ PUSH2 0xD8 JUMPI DUP1 PUSH4 0x9507D39A EQ PUSH2 0xF6 JUMPI DUP1 PUSH4 0xB0C8F9DC EQ PUSH2 0x126 JUMPI DUP1 PUSH4 0xF745630F EQ PUSH2 0x142 JUMPI PUSH2 0x7D JUMP JUMPDEST DUP1 PUSH4 0xF560CD7 EQ PUSH2 0x82 JUMPI DUP1 PUSH4 0x4CC82215 EQ PUSH2 0xA0 JUMPI DUP1 PUSH4 0x751EF753 EQ PUSH2 0xBC JUMPI JUMPDEST PUSH1 0x0 DUP1 REVERT JUMPDEST PUSH2 0x8A PUSH2 0x15E JUMP JUMPDEST PUSH1 0x40 MLOAD PUSH2 0x97 SWAP2 SWAP1 PUSH2 0x981 JUMP JUMPDEST PUSH1 0x40 MLOAD DUP1 SWAP2 SUB SWAP1 RETURN JUMPDEST PUSH2 0xBA PUSH1 0x4 DUP1 CALLDATASIZE SUB DUP2 ADD SWAP1 PUSH2 0xB5 SWAP2 SWAP1 PUSH2 0x9ED JUMP JUMPDEST PUSH2 0x26A JUMP JUMPDEST STOP JUMPDEST PUSH2 0xD6 PUSH1 0x4 DUP1 CALLDATASIZE SUB DUP2 ADD SWAP1 PUSH2 0xD1 SWAP2 SWAP1 PUSH2 0x9ED JUMP JUMPDEST PUSH2 0x421 JUMP JUMPDEST STOP JUMPDEST PUSH2 0xE0 PUSH2 0x4EC JUMP JUMPDEST PUSH1 0x40 MLOAD PUSH2 0xED SWAP2 SWAP1 PUSH2 0xA5B JUMP JUMPDEST PUSH1 0x40 MLOAD DUP1 SWAP2 SUB SWAP1 RETURN JUMPDEST PUSH2 0x110 PUSH1 0x4 DUP1 CALLDATASIZE SUB DUP2 ADD SWAP1 PUSH2 0x10B SWAP2 SWAP1 PUSH2 0x9ED JUMP JUMPDEST PUSH2 0x510 JUMP JUMPDEST PUSH1 0x40 MLOAD PUSH2 0x11D SWAP2 SWAP1 PUSH2 0xAB3 JUMP JUMPDEST PUSH1 0x40 MLOAD DUP1 SWAP2 SUB SWAP1 RETURN JUMPDEST PUSH2 0x140 PUSH1 0x4 DUP1 CALLDATASIZE SUB DUP2 ADD SWAP1 PUSH2 0x13B SWAP2 SWAP1 PUSH2 0xC0A JUMP JUMPDEST PUSH2 0x5F9 JUMP JUMPDEST STOP JUMPDEST PUSH2 0x15C PUSH1 0x4 DUP1 CALLDATASIZE SUB DUP2 ADD SWAP1 PUSH2 0x157 SWAP2 SWAP1 PUSH2 0xC53 JUMP JUMPDEST PUSH2 0x6CF JUMP JUMPDEST STOP JUMPDEST PUSH1 0x60 PUSH1 0x1 DUP1 SLOAD DUP1 PUSH1 0x20 MUL PUSH1 0x20 ADD PUSH1 0x40 MLOAD SWAP1 DUP2 ADD PUSH1 0x40 MSTORE DUP1 SWAP3 SWAP2 SWAP1 DUP2 DUP2 MSTORE PUSH1 0x20 ADD PUSH1 0x0 SWAP1 JUMPDEST DUP3 DUP3 LT ISZERO PUSH2 0x261 JUMPI DUP4 DUP3 SWAP1 PUSH1 0x0 MSTORE PUSH1 0x20 PUSH1 0x0 KECCAK256 SWAP1 PUSH1 0x2 MUL ADD PUSH1 0x40 MLOAD DUP1 PUSH1 0x40 ADD PUSH1 0x40 MSTORE SWAP1 DUP2 PUSH1 0x0 DUP3 ADD DUP1 SLOAD PUSH2 0x1B5 SWAP1 PUSH2 0xCDE JUMP JUMPDEST DUP1 PUSH1 0x1F ADD PUSH1 0x20 DUP1 SWAP2 DIV MUL PUSH1 0x20 ADD PUSH1 0x40 MLOAD SWAP1 DUP2 ADD PUSH1 0x40 MSTORE DUP1 SWAP3 SWAP2 SWAP1 DUP2 DUP2 MSTORE PUSH1 0x20 ADD DUP3 DUP1 SLOAD PUSH2 0x1E1 SWAP1 PUSH2 0xCDE JUMP JUMPDEST DUP1 ISZERO PUSH2 0x22E JUMPI DUP1 PUSH1 0x1F LT PUSH2 0x203 JUMPI PUSH2 0x100 DUP1 DUP4 SLOAD DIV MUL DUP4 MSTORE SWAP2 PUSH1 0x20 ADD SWAP2 PUSH2 0x22E JUMP JUMPDEST DUP3 ADD SWAP2 SWAP1 PUSH1 0x0 MSTORE PUSH1 0x20 PUSH1 0x0 KECCAK256 SWAP1 JUMPDEST DUP2 SLOAD DUP2 MSTORE SWAP1 PUSH1 0x1 ADD SWAP1 PUSH1 0x20 ADD DUP1 DUP4 GT PUSH2 0x211 JUMPI DUP3 SWAP1 SUB PUSH1 0x1F AND DUP3 ADD SWAP2 JUMPDEST POP POP POP POP POP DUP2 MSTORE PUSH1 0x20 ADD PUSH1 0x1 DUP3 ADD PUSH1 0x0 SWAP1 SLOAD SWAP1 PUSH2 0x100 EXP SWAP1 DIV PUSH1 0xFF AND ISZERO ISZERO ISZERO ISZERO DUP2 MSTORE POP POP DUP2 MSTORE PUSH1 0x20 ADD SWAP1 PUSH1 0x1 ADD SWAP1 PUSH2 0x182 JUMP JUMPDEST POP POP POP POP SWAP1 POP SWAP1 JUMP JUMPDEST CALLER PUSH20 0xFFFFFFFFFFFFFFFFFFFFFFFFFFFFFFFFFFFFFFFF AND PUSH1 0x0 DUP1 SLOAD SWAP1 PUSH2 0x100 EXP SWAP1 DIV PUSH20 0xFFFFFFFFFFFFFFFFFFFFFFFFFFFFFFFFFFFFFFFF AND PUSH20 0xFFFFFFFFFFFFFFFFFFFFFFFFFFFFFFFFFFFFFFFF AND EQ PUSH2 0x2C2 JUMPI PUSH1 0x0 DUP1 REVERT JUMPDEST DUP1 PUSH1 0x1 DUP1 SLOAD SWAP1 POP GT PUSH2 0x309 JUMPI PUSH1 0x40 MLOAD PUSH32 0x8C379A000000000000000000000000000000000000000000000000000000000 DUP2 MSTORE PUSH1 0x4 ADD PUSH2 0x300 SWAP1 PUSH2 0xD6C JUMP JUMPDEST PUSH1 0x40 MLOAD DUP1 SWAP2 SUB SWAP1 REVERT JUMPDEST PUSH1 0x0 DUP2 SWAP1 POP JUMPDEST PUSH1 0x1 DUP1 DUP1 SLOAD SWAP1 POP PUSH2 0x320 SWAP2 SWAP1 PUSH2 0xDBB JUMP JUMPDEST DUP2 LT ISZERO PUSH2 0x3CE JUMPI PUSH1 0x1 DUP1 DUP3 PUSH2 0x335 SWAP2 SWAP1 PUSH2 0xDEF JUMP JUMPDEST DUP2 SLOAD DUP2 LT PUSH2 0x346 JUMPI PUSH2 0x345 PUSH2 0xE23 JUMP JUMPDEST JUMPDEST SWAP1 PUSH1 0x0 MSTORE PUSH1 0x20 PUSH1 0x0 KECCAK256 SWAP1 PUSH1 0x2 MUL ADD PUSH1 0x1 DUP3 DUP2 SLOAD DUP2 LT PUSH2 0x368 JUMPI PUSH2 0x367 PUSH2 0xE23 JUMP JUMPDEST JUMPDEST SWAP1 PUSH1 0x0 MSTORE PUSH1 0x20 PUSH1 0x0 KECCAK256 SWAP1 PUSH1 0x2 MUL ADD PUSH1 0x0 DUP3 ADD DUP2 PUSH1 0x0 ADD SWAP1 DUP2 PUSH2 0x38A SWAP2 SWAP1 PUSH2 0x1014 JUMP JUMPDEST POP PUSH1 0x1 DUP3 ADD PUSH1 0x0 SWAP1 SLOAD SWAP1 PUSH2 0x100 EXP SWAP1 DIV PUSH1 0xFF AND DUP2 PUSH1 0x1 ADD PUSH1 0x0 PUSH2 0x100 EXP DUP2 SLOAD DUP2 PUSH1 0xFF MUL NOT AND SWAP1 DUP4 ISZERO ISZERO MUL OR SWAP1 SSTORE POP SWAP1 POP POP DUP1 DUP1 PUSH2 0x3C6 SWAP1 PUSH2 0x10FC JUMP JUMPDEST SWAP2 POP POP PUSH2 0x30F JUMP JUMPDEST POP PUSH1 0x1 DUP1 SLOAD DUP1 PUSH2 0x3E1 JUMPI PUSH2 0x3E0 PUSH2 0x1144 JUMP JUMPDEST JUMPDEST PUSH1 0x1 SWAP1 SUB DUP2 DUP2 SWAP1 PUSH1 0x0 MSTORE PUSH1 0x20 PUSH1 0x0 KECCAK256 SWAP1 PUSH1 0x2 MUL ADD PUSH1 0x0 DUP1 DUP3 ADD PUSH1 0x0 PUSH2 0x406 SWAP2 SWAP1 PUSH2 0x75E JUMP JUMPDEST PUSH1 0x1 DUP3 ADD PUSH1 0x0 PUSH2 0x100 EXP DUP2 SLOAD SWAP1 PUSH1 0xFF MUL NOT AND SWAP1 SSTORE POP POP SWAP1 SSTORE POP JUMP JUMPDEST CALLER PUSH20 0xFFFFFFFFFFFFFFFFFFFFFFFFFFFFFFFFFFFFFFFF AND PUSH1 0x0 DUP1 SLOAD SWAP1 PUSH2 0x100 EXP SWAP1 DIV PUSH20 0xFFFFFFFFFFFFFFFFFFFFFFFFFFFFFFFFFFFFFFFF AND PUSH20 0xFFFFFFFFFFFFFFFFFFFFFFFFFFFFFFFFFFFFFFFF AND EQ PUSH2 0x479 JUMPI PUSH1 0x0 DUP1 REVERT JUMPDEST PUSH1 0x1 DUP2 DUP2 SLOAD DUP2 LT PUSH2 0x48D JUMPI PUSH2 0x48C PUSH2 0xE23 JUMP JUMPDEST JUMPDEST SWAP1 PUSH1 0x0 MSTORE PUSH1 0x20 PUSH1 0x0 KECCAK256 SWAP1 PUSH1 0x2 MUL ADD PUSH1 0x1 ADD PUSH1 0x0 SWAP1 SLOAD SWAP1 PUSH2 0x100 EXP SWAP1 DIV PUSH1 0xFF AND ISZERO PUSH1 0x1 DUP3 DUP2 SLOAD DUP2 LT PUSH2 0x4C1 JUMPI PUSH2 0x4C0 PUSH2 0xE23 JUMP JUMPDEST JUMPDEST SWAP1 PUSH1 0x0 MSTORE PUSH1 0x20 PUSH1 0x0 KECCAK256 SWAP1 PUSH1 0x2 MUL ADD PUSH1 0x1 ADD PUSH1 0x0 PUSH2 0x100 EXP DUP2 SLOAD DUP2 PUSH1 0xFF MUL NOT AND SWAP1 DUP4 ISZERO ISZERO MUL OR SWAP1 SSTORE POP POP JUMP JUMPDEST PUSH1 0x0 DUP1 SLOAD SWAP1 PUSH2 0x100 EXP SWAP1 DIV PUSH20 0xFFFFFFFFFFFFFFFFFFFFFFFFFFFFFFFFFFFFFFFF AND DUP2 JUMP JUMPDEST PUSH2 0x518 PUSH2 0x79E JUMP JUMPDEST PUSH1 0x1 DUP3 DUP2 SLOAD DUP2 LT PUSH2 0x52C JUMPI PUSH2 0x52B PUSH2 0xE23 JUMP JUMPDEST JUMPDEST SWAP1 PUSH1 0x0 MSTORE PUSH1 0x20 PUSH1 0x0 KECCAK256 SWAP1 PUSH1 0x2 MUL ADD PUSH1 0x40 MLOAD DUP1 PUSH1 0x40 ADD PUSH1 0x40 MSTORE SWAP1 DUP2 PUSH1 0x0 DUP3 ADD DUP1 SLOAD PUSH2 0x555 SWAP1 PUSH2 0xCDE JUMP JUMPDEST DUP1 PUSH1 0x1F ADD PUSH1 0x20 DUP1 SWAP2 DIV MUL PUSH1 0x20 ADD PUSH1 0x40 MLOAD SWAP1 DUP2 ADD PUSH1 0x40 MSTORE DUP1 SWAP3 SWAP2 SWAP1 DUP2 DUP2 MSTORE PUSH1 0x20 ADD DUP3 DUP1 SLOAD PUSH2 0x581 SWAP1 PUSH2 0xCDE JUMP JUMPDEST DUP1 ISZERO PUSH2 0x5CE JUMPI DUP1 PUSH1 0x1F LT PUSH2 0x5A3 JUMPI PUSH2 0x100 DUP1 DUP4 SLOAD DIV MUL DUP4 MSTORE SWAP2 PUSH1 0x20 ADD SWAP2 PUSH2 0x5CE JUMP JUMPDEST DUP3 ADD SWAP2 SWAP1 PUSH1 0x0 MSTORE PUSH1 0x20 PUSH1 0x0 KECCAK256 SWAP1 JUMPDEST DUP2 SLOAD DUP2 MSTORE SWAP1 PUSH1 0x1 ADD SWAP1 PUSH1 0x20 ADD DUP1 DUP4 GT PUSH2 0x5B1 JUMPI DUP3 SWAP1 SUB PUSH1 0x1F AND DUP3 ADD SWAP2 JUMPDEST POP POP POP POP POP DUP2 MSTORE PUSH1 0x20 ADD PUSH1 0x1 DUP3 ADD PUSH1 0x0 SWAP1 SLOAD SWAP1 PUSH2 0x100 EXP SWAP1 DIV PUSH1 0xFF AND ISZERO ISZERO ISZERO ISZERO DUP2 MSTORE POP POP SWAP1 POP SWAP2 SWAP1 POP JUMP JUMPDEST CALLER PUSH20 0xFFFFFFFFFFFFFFFFFFFFFFFFFFFFFFFFFFFFFFFF AND PUSH1 0x0 DUP1 SLOAD SWAP1 PUSH2 0x100 EXP SWAP1 DIV PUSH20 0xFFFFFFFFFFFFFFFFFFFFFFFFFFFFFFFFFFFFFFFF AND PUSH20 0xFFFFFFFFFFFFFFFFFFFFFFFFFFFFFFFFFFFFFFFF AND EQ PUSH2 0x651 JUMPI PUSH1 0x0 DUP1 REVERT JUMPDEST PUSH1 0x1 PUSH1 0x40 MLOAD DUP1 PUSH1 0x40 ADD PUSH1 0x40 MSTORE DUP1 DUP4 DUP2 MSTORE PUSH1 0x20 ADD PUSH1 0x0 ISZERO ISZERO DUP2 MSTORE POP SWAP1 DUP1 PUSH1 0x1 DUP2 SLOAD ADD DUP1 DUP3 SSTORE DUP1 SWAP2 POP POP PUSH1 0x1 SWAP1 SUB SWAP1 PUSH1 0x0 MSTORE PUSH1 0x20 PUSH1 0x0 KECCAK256 SWAP1 PUSH1 0x2 MUL ADD PUSH1 0x0 SWAP1 SWAP2 SWAP1 SWAP2 SWAP1 SWAP2 POP PUSH1 0x0 DUP3 ADD MLOAD DUP2 PUSH1 0x0 ADD SWAP1 DUP2 PUSH2 0x6A9 SWAP2 SWAP1 PUSH2 0x1173 JUMP JUMPDEST POP PUSH1 0x20 DUP3 ADD MLOAD DUP2 PUSH1 0x1 ADD PUSH1 0x0 PUSH2 0x100 EXP DUP2 SLOAD DUP2 PUSH1 0xFF MUL NOT AND SWAP1 DUP4 ISZERO ISZERO MUL OR SWAP1 SSTORE POP POP POP POP JUMP JUMPDEST CALLER PUSH20 0xFFFFFFFFFFFFFFFFFFFFFFFFFFFFFFFFFFFFFFFF AND PUSH1 0x0 DUP1 SLOAD SWAP1 PUSH2 0x100 EXP SWAP1 DIV PUSH20 0xFFFFFFFFFFFFFFFFFFFFFFFFFFFFFFFFFFFFFFFF AND PUSH20 0xFFFFFFFFFFFFFFFFFFFFFFFFFFFFFFFFFFFFFFFF AND EQ PUSH2 0x727 JUMPI PUSH1 0x0 DUP1 REVERT JUMPDEST DUP1 PUSH1 0x1 DUP4 DUP2 SLOAD DUP2 LT PUSH2 0x73C JUMPI PUSH2 0x73B PUSH2 0xE23 JUMP JUMPDEST JUMPDEST SWAP1 PUSH1 0x0 MSTORE PUSH1 0x20 PUSH1 0x0 KECCAK256 SWAP1 PUSH1 0x2 MUL ADD PUSH1 0x0 ADD SWAP1 DUP2 PUSH2 0x759 SWAP2 SWAP1 PUSH2 0x1173 JUMP JUMPDEST POP POP POP JUMP JUMPDEST POP DUP1 SLOAD PUSH2 0x76A SWAP1 PUSH2 0xCDE JUMP JUMPDEST PUSH1 0x0 DUP3 SSTORE DUP1 PUSH1 0x1F LT PUSH2 0x77C JUMPI POP PUSH2 0x79B JUMP JUMPDEST PUSH1 0x1F ADD PUSH1 0x20 SWAP1 DIV SWAP1 PUSH1 0x0 MSTORE PUSH1 0x20 PUSH1 0x0 KECCAK256 SWAP1 DUP2 ADD SWAP1 PUSH2 0x79A SWAP2 SWAP1 PUSH2 0x7BA JUMP JUMPDEST JUMPDEST POP JUMP JUMPDEST PUSH1 0x40 MLOAD DUP1 PUSH1 0x40 ADD PUSH1 0x40 MSTORE DUP1 PUSH1 0x60 DUP2 MSTORE PUSH1 0x20 ADD PUSH1 0x0 ISZERO ISZERO DUP2 MSTORE POP SWAP1 JUMP JUMPDEST JUMPDEST DUP1 DUP3 GT ISZERO PUSH2 0x7D3 JUMPI PUSH1 0x0 DUP2 PUSH1 0x0 SWAP1 SSTORE POP PUSH1 0x1 ADD PUSH2 0x7BB JUMP JUMPDEST POP SWAP1 JUMP JUMPDEST PUSH1 0x0 DUP2 MLOAD SWAP1 POP SWAP2 SWAP1 POP JUMP JUMPDEST PUSH1 0x0 DUP3 DUP3 MSTORE PUSH1 0x20 DUP3 ADD SWAP1 POP SWAP3 SWAP2 POP POP JUMP JUMPDEST PUSH1 0x0 DUP2 SWAP1 POP PUSH1 0x20 DUP3 ADD SWAP1 POP SWAP2 SWAP1 POP JUMP JUMPDEST PUSH1 0x0 DUP2 MLOAD SWAP1 POP SWAP2 SWAP1 POP JUMP JUMPDEST PUSH1 0x0 DUP3 DUP3 MSTORE PUSH1 0x20 DUP3 ADD SWAP1 POP SWAP3 SWAP2 POP POP JUMP JUMPDEST PUSH1 0x0 JUMPDEST DUP4 DUP2 LT ISZERO PUSH2 0x83D JUMPI DUP1 DUP3 ADD MLOAD DUP2 DUP5 ADD MSTORE PUSH1 0x20 DUP2 ADD SWAP1 POP PUSH2 0x822 JUMP JUMPDEST PUSH1 0x0 DUP5 DUP5 ADD MSTORE POP POP POP POP JUMP JUMPDEST PUSH1 0x0 PUSH1 0x1F NOT PUSH1 0x1F DUP4 ADD AND SWAP1 POP SWAP2 SWAP1 POP JUMP JUMPDEST PUSH1 0x0 PUSH2 0x865 DUP3 PUSH2 0x803 JUMP JUMPDEST PUSH2 0x86F DUP2 DUP6 PUSH2 0x80E JUMP JUMPDEST SWAP4 POP PUSH2 0x87F DUP2 DUP6 PUSH1 0x20 DUP7 ADD PUSH2 0x81F JUMP JUMPDEST PUSH2 0x888 DUP2 PUSH2 0x849 JUMP JUMPDEST DUP5 ADD SWAP2 POP POP SWAP3 SWAP2 POP POP JUMP JUMPDEST PUSH1 0x0 DUP2 ISZERO ISZERO SWAP1 POP SWAP2 SWAP1 POP JUMP JUMPDEST PUSH2 0x8A8 DUP2 PUSH2 0x893 JUMP JUMPDEST DUP3 MSTORE POP POP JUMP JUMPDEST PUSH1 0x0 PUSH1 0x40 DUP4 ADD PUSH1 0x0 DUP4 ADD MLOAD DUP5 DUP3 SUB PUSH1 0x0 DUP7 ADD MSTORE PUSH2 0x8CB DUP3 DUP3 PUSH2 0x85A JUMP JUMPDEST SWAP2 POP POP PUSH1 0x20 DUP4 ADD MLOAD PUSH2 0x8E0 PUSH1 0x20 DUP7 ADD DUP3 PUSH2 0x89F JUMP JUMPDEST POP DUP1 SWAP2 POP POP SWAP3 SWAP2 POP POP JUMP JUMPDEST PUSH1 0x0 PUSH2 0x8F7 DUP4 DUP4 PUSH2 0x8AE JUMP JUMPDEST SWAP1 POP SWAP3 SWAP2 POP POP JUMP JUMPDEST PUSH1 0x0 PUSH1 0x20 DUP3 ADD SWAP1 POP SWAP2 SWAP1 POP JUMP JUMPDEST PUSH1 0x0 PUSH2 0x917 DUP3 PUSH2 0x7D7 JUMP JUMPDEST PUSH2 0x921 DUP2 DUP6 PUSH2 0x7E2 JUMP JUMPDEST SWAP4 POP DUP4 PUSH1 0x20 DUP3 MUL DUP6 ADD PUSH2 0x933 DUP6 PUSH2 0x7F3 JUMP JUMPDEST DUP1 PUSH1 0x0 JUMPDEST DUP6 DUP2 LT ISZERO PUSH2 0x96F JUMPI DUP5 DUP5 SUB DUP10 MSTORE DUP2 MLOAD PUSH2 0x950 DUP6 DUP3 PUSH2 0x8EB JUMP JUMPDEST SWAP5 POP PUSH2 0x95B DUP4 PUSH2 0x8FF JUMP JUMPDEST SWAP3 POP PUSH1 0x20 DUP11 ADD SWAP10 POP POP PUSH1 0x1 DUP2 ADD SWAP1 POP PUSH2 0x937 JUMP JUMPDEST POP DUP3 SWAP8 POP DUP8 SWAP6 POP POP POP POP POP POP SWAP3 SWAP2 POP POP JUMP JUMPDEST PUSH1 0x0 PUSH1 0x20 DUP3 ADD SWAP1 POP DUP2 DUP2 SUB PUSH1 0x0 DUP4 ADD MSTORE PUSH2 0x99B DUP2 DUP5 PUSH2 0x90C JUMP JUMPDEST SWAP1 POP SWAP3 SWAP2 POP POP JUMP JUMPDEST PUSH1 0x0 PUSH1 0x40 MLOAD SWAP1 POP SWAP1 JUMP JUMPDEST PUSH1 0x0 DUP1 REVERT JUMPDEST PUSH1 0x0 DUP1 REVERT JUMPDEST PUSH1 0x0 DUP2 SWAP1 POP SWAP2 SWAP1 POP JUMP JUMPDEST PUSH2 0x9CA DUP2 PUSH2 0x9B7 JUMP JUMPDEST DUP2 EQ PUSH2 0x9D5 JUMPI PUSH1 0x0 DUP1 REVERT JUMPDEST POP JUMP JUMPDEST PUSH1 0x0 DUP2 CALLDATALOAD SWAP1 POP PUSH2 0x9E7 DUP2 PUSH2 0x9C1 JUMP JUMPDEST SWAP3 SWAP2 POP POP JUMP JUMPDEST PUSH1 0x0 PUSH1 0x20 DUP3 DUP5 SUB SLT ISZERO PUSH2 0xA03 JUMPI PUSH2 0xA02 PUSH2 0x9AD JUMP JUMPDEST JUMPDEST PUSH1 0x0 PUSH2 0xA11 DUP5 DUP3 DUP6 ADD PUSH2 0x9D8 JUMP JUMPDEST SWAP2 POP POP SWAP3 SWAP2 POP POP JUMP JUMPDEST PUSH1 0x0 PUSH20 0xFFFFFFFFFFFFFFFFFFFFFFFFFFFFFFFFFFFFFFFF DUP3 AND SWAP1 POP SWAP2 SWAP1 POP JUMP JUMPDEST PUSH1 0x0 PUSH2 0xA45 DUP3 PUSH2 0xA1A JUMP JUMPDEST SWAP1 POP SWAP2 SWAP1 POP JUMP JUMPDEST PUSH2 0xA55 DUP2 PUSH2 0xA3A JUMP JUMPDEST DUP3 MSTORE POP POP JUMP JUMPDEST PUSH1 0x0 PUSH1 0x20 DUP3 ADD SWAP1 POP PUSH2 0xA70 PUSH1 0x0 DUP4 ADD DUP5 PUSH2 0xA4C JUMP JUMPDEST SWAP3 SWAP2 POP POP JUMP JUMPDEST PUSH1 0x0 PUSH1 0x40 DUP4 ADD PUSH1 0x0 DUP4 ADD MLOAD DUP5 DUP3 SUB PUSH1 0x0 DUP7 ADD MSTORE PUSH2 0xA93 DUP3 DUP3 PUSH2 0x85A JUMP JUMPDEST SWAP2 POP POP PUSH1 0x20 DUP4 ADD MLOAD PUSH2 0xAA8 PUSH1 0x20 DUP7 ADD DUP3 PUSH2 0x89F JUMP JUMPDEST POP DUP1 SWAP2 POP POP SWAP3 SWAP2 POP POP JUMP JUMPDEST PUSH1 0x0 PUSH1 0x20 DUP3 ADD SWAP1 POP DUP2 DUP2 SUB PUSH1 0x0 DUP4 ADD MSTORE PUSH2 0xACD DUP2 DUP5 PUSH2 0xA76 JUMP JUMPDEST SWAP1 POP SWAP3 SWAP2 POP POP JUMP JUMPDEST PUSH1 0x0 DUP1 REVERT JUMPDEST PUSH1 0x0 DUP1 REVERT JUMPDEST PUSH32 0x4E487B7100000000000000000000000000000000000000000000000000000000 PUSH1 0x0 MSTORE PUSH1 0x41 PUSH1 0x4 MSTORE PUSH1 0x24 PUSH1 0x0 REVERT JUMPDEST PUSH2 0xB17 DUP3 PUSH2 0x849 JUMP JUMPDEST DUP2 ADD DUP2 DUP2 LT PUSH8 0xFFFFFFFFFFFFFFFF DUP3 GT OR ISZERO PUSH2 0xB36 JUMPI PUSH2 0xB35 PUSH2 0xADF JUMP JUMPDEST JUMPDEST DUP1 PUSH1 0x40 MSTORE POP POP POP JUMP JUMPDEST PUSH1 0x0 PUSH2 0xB49 PUSH2 0x9A3 JUMP JUMPDEST SWAP1 POP PUSH2 0xB55 DUP3 DUP3 PUSH2 0xB0E JUMP JUMPDEST SWAP2 SWAP1 POP JUMP JUMPDEST PUSH1 0x0 PUSH8 0xFFFFFFFFFFFFFFFF DUP3 GT ISZERO PUSH2 0xB75 JUMPI PUSH2 0xB74 PUSH2 0xADF JUMP JUMPDEST JUMPDEST PUSH2 0xB7E DUP3 PUSH2 0x849 JUMP JUMPDEST SWAP1 POP PUSH1 0x20 DUP2 ADD SWAP1 POP SWAP2 SWAP1 POP JUMP JUMPDEST DUP3 DUP2 DUP4 CALLDATACOPY PUSH1 0x0 DUP4 DUP4 ADD MSTORE POP POP POP JUMP JUMPDEST PUSH1 0x0 PUSH2 0xBAD PUSH2 0xBA8 DUP5 PUSH2 0xB5A JUMP JUMPDEST PUSH2 0xB3F JUMP JUMPDEST SWAP1 POP DUP3 DUP2 MSTORE PUSH1 0x20 DUP2 ADD DUP5 DUP5 DUP5 ADD GT ISZERO PUSH2 0xBC9 JUMPI PUSH2 0xBC8 PUSH2 0xADA JUMP JUMPDEST JUMPDEST PUSH2 0xBD4 DUP5 DUP3 DUP6 PUSH2 0xB8B JUMP JUMPDEST POP SWAP4 SWAP3 POP POP POP JUMP JUMPDEST PUSH1 0x0 DUP3 PUSH1 0x1F DUP4 ADD SLT PUSH2 0xBF1 JUMPI PUSH2 0xBF0 PUSH2 0xAD5 JUMP JUMPDEST JUMPDEST DUP2 CALLDATALOAD PUSH2 0xC01 DUP5 DUP3 PUSH1 0x20 DUP7 ADD PUSH2 0xB9A JUMP JUMPDEST SWAP2 POP POP SWAP3 SWAP2 POP POP JUMP JUMPDEST PUSH1 0x0 PUSH1 0x20 DUP3 DUP5 SUB SLT ISZERO PUSH2 0xC20 JUMPI PUSH2 0xC1F PUSH2 0x9AD JUMP JUMPDEST JUMPDEST PUSH1 0x0 DUP3 ADD CALLDATALOAD PUSH8 0xFFFFFFFFFFFFFFFF DUP2 GT ISZERO PUSH2 0xC3E JUMPI PUSH2 0xC3D PUSH2 0x9B2 JUMP JUMPDEST JUMPDEST PUSH2 0xC4A DUP5 DUP3 DUP6 ADD PUSH2 0xBDC JUMP JUMPDEST SWAP2 POP POP SWAP3 SWAP2 POP POP JUMP JUMPDEST PUSH1 0x0 DUP1 PUSH1 0x40 DUP4 DUP6 SUB SLT ISZERO PUSH2 0xC6A JUMPI PUSH2 0xC69 PUSH2 0x9AD JUMP JUMPDEST JUMPDEST PUSH1 0x0 PUSH2 0xC78 DUP6 DUP3 DUP7 ADD PUSH2 0x9D8 JUMP JUMPDEST SWAP3 POP POP PUSH1 0x20 DUP4 ADD CALLDATALOAD PUSH8 0xFFFFFFFFFFFFFFFF DUP2 GT ISZERO PUSH2 0xC99 JUMPI PUSH2 0xC98 PUSH2 0x9B2 JUMP JUMPDEST JUMPDEST PUSH2 0xCA5 DUP6 DUP3 DUP7 ADD PUSH2 0xBDC JUMP JUMPDEST SWAP2 POP POP SWAP3 POP SWAP3 SWAP1 POP JUMP JUMPDEST PUSH32 0x4E487B7100000000000000000000000000000000000000000000000000000000 PUSH1 0x0 MSTORE PUSH1 0x22 PUSH1 0x4 MSTORE PUSH1 0x24 PUSH1 0x0 REVERT JUMPDEST PUSH1 0x0 PUSH1 0x2 DUP3 DIV SWAP1 POP PUSH1 0x1 DUP3 AND DUP1 PUSH2 0xCF6 JUMPI PUSH1 0x7F DUP3 AND SWAP2 POP JUMPDEST PUSH1 0x20 DUP3 LT DUP2 SUB PUSH2 0xD09 JUMPI PUSH2 0xD08 PUSH2 0xCAF JUMP JUMPDEST JUMPDEST POP SWAP2 SWAP1 POP JUMP JUMPDEST PUSH1 0x0 DUP3 DUP3 MSTORE PUSH1 0x20 DUP3 ADD SWAP1 POP SWAP3 SWAP2 POP POP JUMP JUMPDEST PUSH32 0x4F7574206F6620626F756E647300000000000000000000000000000000000000 PUSH1 0x0 DUP3 ADD MSTORE POP JUMP JUMPDEST PUSH1 0x0 PUSH2 0xD56 PUSH1 0xD DUP4 PUSH2 0xD0F JUMP JUMPDEST SWAP2 POP PUSH2 0xD61 DUP3 PUSH2 0xD20 JUMP JUMPDEST PUSH1 0x20 DUP3 ADD SWAP1 POP SWAP2 SWAP1 POP JUMP JUMPDEST PUSH1 0x0 PUSH1 0x20 DUP3 ADD SWAP1 POP DUP2 DUP2 SUB PUSH1 0x0 DUP4 ADD MSTORE PUSH2 0xD85 DUP2 PUSH2 0xD49 JUMP JUMPDEST SWAP1 POP SWAP2 SWAP1 POP JUMP JUMPDEST PUSH32 0x4E487B7100000000000000000000000000000000000000000000000000000000 PUSH1 0x0 MSTORE PUSH1 0x11 PUSH1 0x4 MSTORE PUSH1 0x24 PUSH1 0x0 REVERT JUMPDEST PUSH1 0x0 PUSH2 0xDC6 DUP3 PUSH2 0x9B7 JUMP JUMPDEST SWAP2 POP PUSH2 0xDD1 DUP4 PUSH2 0x9B7 JUMP JUMPDEST SWAP3 POP DUP3 DUP3 SUB SWAP1 POP DUP2 DUP2 GT ISZERO PUSH2 0xDE9 JUMPI PUSH2 0xDE8 PUSH2 0xD8C JUMP JUMPDEST JUMPDEST SWAP3 SWAP2 POP POP JUMP JUMPDEST PUSH1 0x0 PUSH2 0xDFA DUP3 PUSH2 0x9B7 JUMP JUMPDEST SWAP2 POP PUSH2 0xE05 DUP4 PUSH2 0x9B7 JUMP JUMPDEST SWAP3 POP DUP3 DUP3 ADD SWAP1 POP DUP1 DUP3 GT ISZERO PUSH2 0xE1D JUMPI PUSH2 0xE1C PUSH2 0xD8C JUMP JUMPDEST JUMPDEST SWAP3 SWAP2 POP POP JUMP JUMPDEST PUSH32 0x4E487B7100000000000000000000000000000000000000000000000000000000 PUSH1 0x0 MSTORE PUSH1 0x32 PUSH1 0x4 MSTORE PUSH1 0x24 PUSH1 0x0 REVERT JUMPDEST PUSH1 0x0 DUP2 SLOAD SWAP1 POP PUSH2 0xE61 DUP2 PUSH2 0xCDE JUMP JUMPDEST SWAP1 POP SWAP2 SWAP1 POP JUMP JUMPDEST PUSH1 0x0 DUP2 SWAP1 POP DUP2 PUSH1 0x0 MSTORE PUSH1 0x20 PUSH1 0x0 KECCAK256 SWAP1 POP SWAP2 SWAP1 POP JUMP JUMPDEST PUSH1 0x0 PUSH1 0x20 PUSH1 0x1F DUP4 ADD DIV SWAP1 POP SWAP2 SWAP1 POP JUMP JUMPDEST PUSH1 0x0 DUP3 DUP3 SHL SWAP1 POP SWAP3 SWAP2 POP POP JUMP JUMPDEST PUSH1 0x0 PUSH1 0x8 DUP4 MUL PUSH2 0xECA PUSH32 0xFFFFFFFFFFFFFFFFFFFFFFFFFFFFFFFFFFFFFFFFFFFFFFFFFFFFFFFFFFFFFFFF DUP3 PUSH2 0xE8D JUMP JUMPDEST PUSH2 0xED4 DUP7 DUP4 PUSH2 0xE8D JUMP JUMPDEST SWAP6 POP DUP1 NOT DUP5 AND SWAP4 POP DUP1 DUP7 AND DUP5 OR SWAP3 POP POP POP SWAP4 SWAP3 POP POP POP JUMP JUMPDEST PUSH1 0x0 DUP2 SWAP1 POP SWAP2 SWAP1 POP JUMP JUMPDEST PUSH1 0x0 PUSH2 0xF11 PUSH2 0xF0C PUSH2 0xF07 DUP5 PUSH2 0x9B7 JUMP JUMPDEST PUSH2 0xEEC JUMP JUMPDEST PUSH2 0x9B7 JUMP JUMPDEST SWAP1 POP SWAP2 SWAP1 POP JUMP JUMPDEST PUSH1 0x0 DUP2 SWAP1 POP SWAP2 SWAP1 POP JUMP JUMPDEST PUSH2 0xF2B DUP4 PUSH2 0xEF6 JUMP JUMPDEST PUSH2 0xF3F PUSH2 0xF37 DUP3 PUSH2 0xF18 JUMP JUMPDEST DUP5 DUP5 SLOAD PUSH2 0xE9A JUMP JUMPDEST DUP3 SSTORE POP POP POP POP JUMP JUMPDEST PUSH1 0x0 SWAP1 JUMP JUMPDEST PUSH2 0xF54 PUSH2 0xF47 JUMP JUMPDEST PUSH2 0xF5F DUP2 DUP5 DUP5 PUSH2 0xF22 JUMP JUMPDEST POP POP POP JUMP JUMPDEST JUMPDEST DUP2 DUP2 LT ISZERO PUSH2 0xF83 JUMPI PUSH2 0xF78 PUSH1 0x0 DUP3 PUSH2 0xF4C JUMP JUMPDEST PUSH1 0x1 DUP2 ADD SWAP1 POP PUSH2 0xF65 JUMP JUMPDEST POP POP JUMP JUMPDEST PUSH1 0x1F DUP3 GT ISZERO PUSH2 0xFC8 JUMPI PUSH2 0xF99 DUP2 PUSH2 0xE68 JUMP JUMPDEST PUSH2 0xFA2 DUP5 PUSH2 0xE7D JUMP JUMPDEST DUP2 ADD PUSH1 0x20 DUP6 LT ISZERO PUSH2 0xFB1 JUMPI DUP2 SWAP1 POP JUMPDEST PUSH2 0xFC5 PUSH2 0xFBD DUP6 PUSH2 0xE7D JUMP JUMPDEST DUP4 ADD DUP3 PUSH2 0xF64 JUMP JUMPDEST POP POP JUMPDEST POP POP POP JUMP JUMPDEST PUSH1 0x0 DUP3 DUP3 SHR SWAP1 POP SWAP3 SWAP2 POP POP JUMP JUMPDEST PUSH1 0x0 PUSH2 0xFEB PUSH1 0x0 NOT DUP5 PUSH1 0x8 MUL PUSH2 0xFCD JUMP JUMPDEST NOT DUP1 DUP4 AND SWAP2 POP POP SWAP3 SWAP2 POP POP JUMP JUMPDEST PUSH1 0x0 PUSH2 0x1004 DUP4 DUP4 PUSH2 0xFDA JUMP JUMPDEST SWAP2 POP DUP3 PUSH1 0x2 MUL DUP3 OR SWAP1 POP SWAP3 SWAP2 POP POP JUMP JUMPDEST DUP2 DUP2 SUB PUSH2 0x1022 JUMPI POP POP PUSH2 0x10FA JUMP JUMPDEST PUSH2 0x102B DUP3 PUSH2 0xE52 JUMP JUMPDEST PUSH8 0xFFFFFFFFFFFFFFFF DUP2 GT ISZERO PUSH2 0x1044 JUMPI PUSH2 0x1043 PUSH2 0xADF JUMP JUMPDEST JUMPDEST PUSH2 0x104E DUP3 SLOAD PUSH2 0xCDE JUMP JUMPDEST PUSH2 0x1059 DUP3 DUP3 DUP6 PUSH2 0xF87 JUMP JUMPDEST PUSH1 0x0 PUSH1 0x1F DUP4 GT PUSH1 0x1 DUP2 EQ PUSH2 0x1088 JUMPI PUSH1 0x0 DUP5 ISZERO PUSH2 0x1076 JUMPI DUP3 DUP8 ADD SLOAD SWAP1 POP JUMPDEST PUSH2 0x1080 DUP6 DUP3 PUSH2 0xFF8 JUMP JUMPDEST DUP7 SSTORE POP PUSH2 0x10F3 JUMP JUMPDEST PUSH1 0x1F NOT DUP5 AND PUSH2 0x1096 DUP8 PUSH2 0xE68 JUMP JUMPDEST SWAP7 POP PUSH2 0x10A1 DUP7 PUSH2 0xE68 JUMP JUMPDEST PUSH1 0x0 JUMPDEST DUP3 DUP2 LT ISZERO PUSH2 0x10C9 JUMPI DUP5 DUP10 ADD SLOAD DUP3 SSTORE PUSH1 0x1 DUP3 ADD SWAP2 POP PUSH1 0x1 DUP6 ADD SWAP5 POP PUSH1 0x20 DUP2 ADD SWAP1 POP PUSH2 0x10A4 JUMP JUMPDEST DUP7 DUP4 LT ISZERO PUSH2 0x10E6 JUMPI DUP5 DUP10 ADD SLOAD PUSH2 0x10E2 PUSH1 0x1F DUP10 AND DUP3 PUSH2 0xFDA JUMP JUMPDEST DUP4 SSTORE POP JUMPDEST PUSH1 0x1 PUSH1 0x2 DUP9 MUL ADD DUP9 SSTORE POP POP POP JUMPDEST POP POP POP POP POP POP JUMPDEST JUMP JUMPDEST PUSH1 0x0 PUSH2 0x1107 DUP3 PUSH2 0x9B7 JUMP JUMPDEST SWAP2 POP PUSH32 0xFFFFFFFFFFFFFFFFFFFFFFFFFFFFFFFFFFFFFFFFFFFFFFFFFFFFFFFFFFFFFFFF DUP3 SUB PUSH2 0x1139 JUMPI PUSH2 0x1138 PUSH2 0xD8C JUMP JUMPDEST JUMPDEST PUSH1 0x1 DUP3 ADD SWAP1 POP SWAP2 SWAP1 POP JUMP JUMPDEST PUSH32 0x4E487B7100000000000000000000000000000000000000000000000000000000 PUSH1 0x0 MSTORE PUSH1 0x31 PUSH1 0x4 MSTORE PUSH1 0x24 PUSH1 0x0 REVERT JUMPDEST PUSH2 0x117C DUP3 PUSH2 0x803 JUMP JUMPDEST PUSH8 0xFFFFFFFFFFFFFFFF DUP2 GT ISZERO PUSH2 0x1195 JUMPI PUSH2 0x1194 PUSH2 0xADF JUMP JUMPDEST JUMPDEST PUSH2 0x119F DUP3 SLOAD PUSH2 0xCDE JUMP JUMPDEST PUSH2 0x11AA DUP3 DUP3 DUP6 PUSH2 0xF87 JUMP JUMPDEST PUSH1 0x0 PUSH1 0x20 SWAP1 POP PUSH1 0x1F DUP4 GT PUSH1 0x1 DUP2 EQ PUSH2 0x11DD JUMPI PUSH1 0x0 DUP5 ISZERO PUSH2 0x11CB JUMPI DUP3 DUP8 ADD MLOAD SWAP1 POP JUMPDEST PUSH2 0x11D5 DUP6 DUP3 PUSH2 0xFF8 JUMP JUMPDEST DUP7 SSTORE POP PUSH2 0x123D JUMP JUMPDEST PUSH1 0x1F NOT DUP5 AND PUSH2 0x11EB DUP7 PUSH2 0xE68 JUMP JUMPDEST PUSH1 0x0 JUMPDEST DUP3 DUP2 LT ISZERO PUSH2 0x1213 JUMPI DUP5 DUP10 ADD MLOAD DUP3 SSTORE PUSH1 0x1 DUP3 ADD SWAP2 POP PUSH1 0x20 DUP6 ADD SWAP5 POP PUSH1 0x20 DUP2 ADD SWAP1 POP PUSH2 0x11EE JUMP JUMPDEST DUP7 DUP4 LT ISZERO PUSH2 0x1230 JUMPI DUP5 DUP10 ADD MLOAD PUSH2 0x122C PUSH1 0x1F DUP10 AND DUP3 PUSH2 0xFDA JUMP JUMPDEST DUP4 SSTORE POP JUMPDEST PUSH1 0x1 PUSH1 0x2 DUP9 MUL ADD DUP9 SSTORE POP POP POP JUMPDEST POP POP POP POP POP POP JUMP INVALID LOG2 PUSH5 0x6970667358 0x22 SLT KECCAK256 0xB4 0xB4 PUSH16 0xFBF2F6D12FADE2D56FC1121A0A1141F5 0x4E SWAP5 PUSH17 0xBE613FFA019E07801FF264736F6C634300 ADDMOD SLT STOP CALLER "
				},
				"gasEstimates": {
					"creation": {
						"codeDepositCost": "946200",
						"executionCost": "25247",
						"totalCost": "971447"
					},
					"external": {
						"add(string)": "infinite",
						"get(uint256)": "infinite",
						"list()": "infinite",
						"owner()": "2511",
						"remove(uint256)": "infinite",
						"toggle(uint256)": "33418",
						"update(uint256,string)": "infinite"
					}
				},
				"methodIdentifiers": {
					"add(string)": "b0c8f9dc",
					"get(uint256)": "9507d39a",
					"list()": "0f560cd7",
					"owner()": "8da5cb5b",
					"remove(uint256)": "4cc82215",
					"toggle(uint256)": "751ef753",
					"update(uint256,string)": "f745630f"
				}
			},
			"storageLayout": {
				"storage": [
					{
						"astId": 3,
						"contract": "contract/todo.sol:ToDo",
						"label": "owner",
						"offset": 0,
						"slot": "0",
						"type": "t_address"
					},
					{
						"astId": 7,
						"contract": "contract/todo.sol:ToDo",
						"label": "tasks",
						"offset": 0,
						"slot": "1",
						"type": "t_array(t_struct(Task)12_storage)dyn_storage"
					}
				],
				"types": {
					"t_address": {
						"encoding": "inplace",
						"label": "address",
						"numberOfBytes": "20"
					},
					"t_array(t_struct(Task)12_storage)dyn_storage": {
						"base": "t_struct(Task)12_storage",
						"encoding": "dynamic_array",
						"label": "struct ToDo.Task[]",
						"numberOfBytes": "32"
					},
					"t_bool": {
						"encoding": "inplace",
						"label": "bool",
						"numberOfBytes": "1"
					},
					"t_string_storage": {
						"encoding": "bytes",
						"label": "string",
						"numberOfBytes": "32"
					},
					"t_struct(Task)12_storage": {
						"encoding": "inplace",
						"label": "struct ToDo.Task",
						"members": [
							{
								"astId": 9,
								"contract": "contract/todo.sol:ToDo",
								"label": "content",
								"offset": 0,
								"slot": "0",
								"type": "t_string_storage"
							},
							{
								"astId": 11,
								"contract": "contract/todo.sol:ToDo",
								"label": "status",
								"offset": 0,
								"slot": "1",
								"type": "t_bool"
							}
						],
						"numberOfBytes": "64"
					}
				}
			},
			"userdoc": {
				"kind": "user",
				"methods": {},
				"version": 1
			}
		}
	}
}